:1000000032EF36F00000000000EF00F000000000CA
:0A0010000000000000000000F3D71C
:10001C00240E0C6EB50E0D6E0D2EFED70C2EFCD7CD
:06002C00000000001200BC
:0A003200530E0D6E0D2EFED71200C6
:0C003C00000000000000000000001200A6
:10004800040112BF02D08A9E01D08A8E12BD02D04E
:100058008A9C01D08A8C12BB02D08A9A01D08A8AE3
:1000680012B902D08A9801D08A88020127B102D039
:100078008A8201D08A928A80DDDF8A90040112B7D1
:1000880002D08A9E01D08A8E12B502D08A9C01D0F5
:100098008A8C12B302D08A9A01D08A8A12B102D00D
:1000A8008A9801D08A88020127B102D08A8201D0B9
:1000B8008A928A80BFDF8A9027A102D0ABDF01D065
:0400C800B4DF12008F
:1000CC0010D0800E04010F6F1AD0C00E0F6F17D016
:1000DC00940E0F6F14D0D40E0F6F11D0800E0F6FC3
:1000EC000ED004010F51010AECE00F51020AEDE0B1
:1000FC000F51030AEDE00F51040AEDE0EFD71005A4
:10010C00006E0F51002600C00FF40201278100C0C1
:10011C0012F494DF279111C412F490DF278112009E
:0E012C00020127910EC412F489DF2781120010
:10013A00040E0C6E3A0E0D6E0D2EFED70C2EFCD749
:04014A00000012009F
:10014E0010D0010E04010F6F010E106F116BB7DF8F
:10015E000FD0020E04010F6F010E106F116BAFDF87
:10016E0007D002011051010AECE01051020AF1E031
:02017E0012006D
:1001800002012051010AD8A46AD1800E000A006E33
:10019000800E0F19005CD8B0ADD07ED0010E0401E6
:1001A0000F6F0F0E106F010E116F90DFA2D0010EB6
:1001B00004010F6F0E0E106F010E116F87DF99D0C3
:1001C000010E04010F6F0D0E106F010E116F7EDF17
:1001D00090D0010E04010F6F0C0E106F010E116F05
:1001E00075DF87D0010E04010F6F0B0E106F010E2B
:1001F000116F6CDF7ED0010E04010F6F0A0E106FBD
:10020000010E116F63DF75D0010E04010F6F090E2F
:10021000106F010E116F5ADF6CD0010E04010F6FC9
:10022000080E106F010E116F51DF63D0010E040133
:100230000F6F070E106F010E116F48DF5AD0010EBD
:1002400004010F6F060E106F010E116F3FDF51D0CA
:10025000010E04010F6F050E106F010E116F36DFD6
:1002600048D0010E04010F6F040E106F010E116FC4
:100270002DDF3FD0010E04010F6F030E106F010E32
:10028000116F24DF36D0010E04010F6F020E106FC4
:10029000010E116F1BDF2DD00F510F0AD8B47ED77E
:1002A0000F510E0AD8B483D70F510D0AD8B488D78E
:1002B0000F510C0A8EE00F510B0A94E00F510A0AFD
:1002C0009AE00F51090AA0E00F51080AA6E00F5169
:1002D000070AACE00F51060AB2E00F51050AB8E078
:1002E0000F51040ABEE00F51030AC4E00F51020A85
:1002F000CAE0B4D0800E000A006E800E0919005CBE
:10030000D8B0ACD07ED0010E04010F6F0F0E106F6D
:10031000020E116FDBDEA2D0010E04010F6F0E0E74
:10032000106F020E116FD2DE99D0010E04010F6F13
:100330000D0E106F020E116FC9DE90D0010E040178
:100340000F6F0C0E106F020E116FC0DE87D0010E02
:1003500004010F6F0B0E106F020E116FB7DE7ED00F
:10036000010E04010F6F0A0E106F020E116FAEDE48
:1003700075D0010E04010F6F090E106F020E116F80
:10038000A5DE6CD0010E04010F6F080E106F020E77
:10039000116F9CDE63D0010E04010F6F070E106F0A
:1003A000020E116F93DE5AD0010E04010F6F060E7C
:1003B000106F020E116F8ADE51D0010E04010F6F13
:1003C000050E106F020E116F81DE48D0010E040180
:1003D0000F6F040E106F020E116F78DE3FD0010E0A
:1003E00004010F6F030E106F020E116F6FDE36D017
:1003F000010E04010F6F020E106F020E116F66DE08
:100400002DD009510F0AD8B47ED709510E0AD8B49D
:1004100083D709510D0AD8B488D709510C0A8EE048
:1004200009510B0A94E009510A0A9AE00951090A94
:10043000A0E00951080AA6E00951070AACE00951F9
:10044000060AB2E00951050AB8E00951040ABEE003
:100450000951030AC4E00951020ACAE022D20E512E
:10046000020AD8A41ED2800E000A006E800E0F1958
:10047000005CD8B0ADD07ED0020E04010F6F0F0E1D
:10048000106F010E116F22DEA2D0020E04010F6F59
:100490000E0E106F010E116F19DE99D0020E0401BD
:1004A0000F6F0D0E106F010E116F10DE90D0020E47
:1004B00004010F6F0C0E106F010E116F07DE87D055
:1004C000020E04010F6F0B0E106F010E116FFEDD97
:1004D0007ED0020E04010F6F0A0E106F010E116F15
:1004E000F5DD75D0020E04010F6F090E106F010EBD
:1004F000116FECDD6CD0020E04010F6F080E106F4F
:10050000010E116FE3DD63D0020E04010F6F070EC1
:10051000106F010E116FDADD5AD0020E04010F6F59
:10052000060E106F010E116FD1DD51D0020E0401C5
:100530000F6F050E106F010E116FC8DD48D0020E4F
:1005400004010F6F040E106F010E116FBFDD3FD05D
:10055000020E04010F6F030E106F010E116FB6DD56
:1005600036D0020E04010F6F020E106F010E116FD4
:10057000ADDD2DD00F510F0AD8B47ED70F510E0A22
:10058000D8B483D70F510D0AD8B488D70F510C0AAD
:100590008EE00F510B0A94E00F510A0A9AE00F51B6
:1005A000090AA0E00F51080AA6E00F51070AACE0C3
:1005B0000F51060AB2E00F51050AB8E00F51040AC4
:1005C000BEE00F51030AC4E00F51020ACAE069D12C
:1005D000800E000A006E800E0919005CD8B0ADD004
:1005E0007ED0020E04010F6F0F0E106F020E116FFE
:1005F0006DDDA2D0020E04010F6F0E0E106F020E01
:10060000116F64DD99D0020E04010F6F0D0E106F93
:10061000020E116F5BDD90D0020E04010F6F0C0E05
:10062000106F020E116F52DD87D0020E04010F6FA2
:100630000B0E106F020E116F49DD7ED0020E040109
:100640000F6F0A0E106F020E116F40DD75D0020E93
:1006500004010F6F090E106F020E116F37DD6CD0A1
:10066000020E04010F6F080E106F020E116F2EDDC7
:1006700063D0020E04010F6F070E106F020E116F90
:1006800025DD5AD0020E04010F6F060E106F020E08
:10069000116F1CDD51D0020E04010F6F050E106F9B
:1006A000020E116F13DD48D0020E04010F6F040E0D
:1006B000106F020E116F0ADD3FD0020E04010F6FA2
:1006C000030E106F020E116F01DD36D0020E040111
:1006D0000F6F020E106F020E116FF8DC2DD0095152
:1006E0000F0AD8B47ED709510E0AD8B483D709515E
:1006F0000D0AD8B488D709510C0A8EE009510B0AAB
:1007000094E009510A0A9AE00951090AA0E0095146
:10071000080AA6E00951070AACE00951060AB2E04E
:100720000951050AB8E00951040ABEE00951030A5B
:10073000C4E00951020ACAE0B4D0800E000A006E7B
:10074000800E0819005CD8B0ACD07ED0020E040137
:100750000F6F0F0E106F060E116FB8DCA2D0020ED5
:1007600004010F6F0E0E106F060E116FAFDC99D0E3
:10077000020E04010F6F0D0E106F060E116FA6DC36
:1007800090D0020E04010F6F0C0E106F060E116F49
:100790009DDC87D0020E04010F6F0B0E106F060E4A
:1007A000116F94DC7ED0020E04010F6F0A0E106FE1
:1007B000060E116F8BDC75D0020E04010F6F090E4F
:1007C000106F060E116F82DC6CD0020E04010F6FE9
:1007D000080E106F060E116F79DC63D0020E040153
:1007E0000F6F070E106F060E116F70DC5AD0020EDD
:1007F00004010F6F060E106F060E116F67DC51D0EB
:10080000020E04010F6F050E106F060E116F5EDCF5
:1008100048D0020E04010F6F040E106F060E116F08
:1008200055DC3FD0020E04010F6F030E106F060E51
:10083000116F4CDC36D0020E04010F6F020E106FE8
:10084000060E116F43DC2DD008510F0AD8B47ED7A5
:1008500008510E0AD8B483D708510D0AD8B488D7E6
:1008600008510C0A8EE008510B0A94E008510A0A5C
:100870009AE00851090AA0E00851080AA6E00851C8
:10088000070AACE00851060AB2E00851050AB8E0D0
:100890000851040ABEE00851030AC4E00851020AE4
:0408A000CAE0120098
:1008A4000201215129192FE12051010A2CE10A5199
:1008B400010A29E1010E0401126F24EC00F045DC69
:1008C400010E04010F6F29C210F4030E116F66ECC0
:1008D40000F0080E0B6E9D0E0C6E050E0D6E0D2EA7
:1008E400FED70C2EFCD70B2EFAD700000000010E09
:1008F4000401126F24EC00F028DC0D6B010E006E75
:10090400000E016E33D02151281930E10E51020A34
:100914002DE10A51020A2AE1010E0401126F24ECAE
:1009240000F013DC020E04010F6F28C210F4030E52
:10093400116F66EC00F0080E0B6E9D0E0C6E050E2A
:100944000D6E0D2EFED70C2EFCD70B2EFAD7000001
:100954000000010E0401126F24EC00F0A7EC00F07B
:0E0964000D6B010E006E000E016E00D0120031
:100972000134083609360450085E0550D8A0053CFB
:10098200095E003601360F0E0C6E01340836093648
:10099200045000A006D0085E0550D8A0053C095EB0
:1009A20005D008260550D8B0053C09260036013688
:1009B2000C2EEBD700B006D0045008260550D8B054
:0809C200053C092600001200AB
:1009CA0007C422F208C423F2000E0201246F256F25
:0609DA00010E266F120061
:1009E000220E0C6E086A096A0A6A0B6A0C06D8B4F1
:1009F0001FD0D8900B320A32093208320332023249
:100A000001320032D8A0F2D70C06D8B409D0045075
:100A100008260550092206500A2207500B22EAD761
:100A2000045008260550092206500A2207500B22BE
:020A30001200B2
:100A3200016A026A036A000E035C09E201C0E1FF77
:100A420002C0E2FFE66A014A022A032AF4D7000E34
:100A5200016E010E026E036A800E006E800E010AA4
:100A6200005C02E1000E035C09E201C0E1FF02C08A
:0E0A7200E2FFE66A014A022A032AEED71200CA
:100A800010D0800E0401076F1AD0C00E076F17D068
:100A9000940E076F14D0D40E076F11D0800E076F1D
:100AA0000ED004010751010AECE00751020AEDE003
:100AB0000751030AEDE00751040AEDE0EFD70805FE
:100AC000006E0751002600C007F400C012F424ECA9
:100AD00000F0279104010B6B0B510925E96E000E04
:100AE0000A21EA6EEE520DE00B510925E96E000E67
:100AF0000A21EA6EEECF0EF496EC00F004010B2B07
:080B0000EBD70201278112006E
:100B080004010D6B09C401F0010E006E015004E0F0
:100B180000360090FF0FFBD700C00CF407C4E9FFB4
:100B280008C4EAFF0050EE14016E0152010ED8A469
:100B3800000E006E0B51001A1AE00A51000806E276
:100B48009DEC00F09DEC00F00A07F7D707C4E9FF19
:100B580008C4EAFF0C51EE14016E0152010ED8A42C
:100B6800000E006E0B51001A02E0FF0E0D6F0DC44F
:040B780000F0120077
:100B7C000450000A08E10550000A05E1FF0E006E62
:100B8C007F0E016E57D00D6A096A086A0150001079
:100B9C00D8B4000C015005180A6E0ABE0D1E0B6A63
:100BAC0005AE05D0041E051E042AD8B4052A01AED4
:100BBC0005D0001E011E002AD8B4012A01500510D0
:100BCC000A6E0ABE10D0CFDE0BB020D00DAE000CDA
:100BDC00001E011E002AD8B4012A081E091E082A6C
:100BEC00D8B4092A000C05AE0DD001BE07D00150B7
:100BFC00096E0050086E016A006AE8D7016A006A43
:100C0C00002A000C011E001E0B2ADDD7082AD8B4BE
:100C1C00092A0450085CD8A4D9D70550095CD8A47B
:100C2C00D5D7096A086A002AD8B4012A01AECED7F2
:060C3C000000FF0C120095
:100C4200830E0401076F0F0E086F096B320E0A6FD5
:100C5200010E0B6F58DF00520FE0010E0201106F00
:100C6200010E0001A56F010E04010F6F010E106F3E
:100C7200116B66EC00F01CD0830E0401076F0F0E9F
:100C8200086F010E096F320E0A6F010E0B6F3BDF08
:100C920000520EE0020E0201106F020E0001A56F5B
:100CA200020E04010F6F010E106F116B66EC00F063
:020CB20012002E
:100CB40002010A51010A2AE1010E0401126F24EC17
:100CC40000F0A7EC00F0C0EC00F0EADD000E011823
:100CD40002E1010E00180DE1010E0B6F206B010EF5
:100CE4000401126F24EC00F0A7EC00F00C6B216BF4
:100CF40009D0010E04010F6F11C210F4050E116F1B
:100D040066EC00F0112B11C221F22CD00A51020A18
:100D140029E1010E0401126F24EC00F0A7EC00F0AD
:100D2400C0EC00F0BDDD000E011802E1010E001858
:100D34000DE1010E0B6F0E6B010E0401126F24EC1A
:100D440000F0A7EC00F00C6B216B09D0020E04013B
:100D54000F6F11C210F4050E116F66EC00F0112B29
:060D640011C221F2120091
:100D6A000900F5CFE6FF0006FBE10106F9E11200F2
:100D7A000401066B066B800E0619006E800E040ACB
:100D8A00005CD8B0D5D0010E126F24EC00F0010E31
:100D9A0004010F6F060E106F030E116F66EC00F060
:100DAA00010E04010F6F070E106F030E116F66EC30
:100DBA0000F0010E04010F6F080E106F030E116F81
:100DCA0066EC00F0010E04010F6F090E106F030E9E
:100DDA00116F66EC00F0010E04010F6F0A0E106F1E
:100DEA00030E116F66EC00F0020E04010F6F060E7F
:100DFA00106F030E116F66EC00F0020E04010F6F04
:100E0A00070E106F030E116F66EC00F0020E04015C
:100E1A000F6F080E106F030E116F66EC00F0020ED2
:100E2A0004010F6F090E106F030E116F66EC00F0CC
:100E3A00020E04010F6F0A0E106F030E116F66EC9B
:100E4A0000F00D0E0B6EAF0E0C6EB60E0D6E0D2E63
:100E5A00FED70C2EFCD70B2EFAD70000010E040188
:100E6A000F6F060E106F040E116F66EC00F0010E84
:100E7A0004010F6F070E106F040E116F66EC00F07D
:100E8A00010E04010F6F080E106F040E116F66EC4D
:100E9A0000F0010E04010F6F090E106F040E116F9E
:100EAA0066EC00F0010E04010F6F0A0E106F040EBB
:100EBA00116F66EC00F0020E04010F6F060E106F40
:100ECA00040E116F66EC00F0020E04010F6F070E9C
:100EDA00106F040E116F66EC00F0020E04010F6F22
:100EEA00080E106F040E116F66EC00F0020E04017A
:100EFA000F6F090E106F040E116F66EC00F0020EF0
:100F0A0004010F6F0A0E106F040E116F66EC00F0E9
:100F1A00120E0B6EC20E0C6E660E0D6E0D2EFED7E5
:100F2A000C2EFCD70B2EFAD700000401062B23D770
:100F3A00010E126F24EC00F0010E0401076F030E7C
:100F4A00086F130E096F020E0A6F95DD7F0E0B6E86
:100F5A00D40E0C6E310E0D6E0D2EFED70C2EFCD754
:100F6A000B2EFAD7000000001251010A07E1010E08
:100F7A00076F010E006E000E016E03D055DD006A88
:040F8A00016A1200E6
:100F8E00010E0401126F24EC00F0010E04010F6F2C
:100F9E00100E106F030E116F66EC00F0020E0401BE
:100FAE000F6F100E106F030E116F66EC00F00D0E2A
:100FBE000B6EAF0E0C6EB60E0D6E0D2EFED70C2EEA
:100FCE00FCD70B2EFAD70000010E0401126F24EC91
:100FDE0000F0010E04010F6F100E106F040E116F52
:100FEE0066EC00F0020E04010F6F100E106F040E6F
:100FFE00116F66EC00F00D0E0B6EAF0E0C6EB60E92
:10100E000D6E0D2EFED70C2EFCD70B2EFAD7000030
:10101E00010E0401126F24EC00F0010E04010F6F9B
:10102E00100E106F030E116F66EC00F0020E04012D
:10103E000F6F100E106F030E116F66EC00F00D0E99
:10104E000B6EAF0E0C6EB60E0D6E0D2EFED70C2E59
:10105E00FCD70B2EFAD70000010E0401126F24EC00
:10106E0000F0010E04010F6F100E106F040E116FC1
:10107E0066EC00F0020E04010F6F100E106F040EDE
:10108E00116F66EC00F00D0E0B6EAF0E0C6EB60E01
:10109E000D6E0D2EFED70C2EFCD70B2EFAD70000A0
:1010AE00010E0401126F24EC00F0010E0401076F13
:1010BE00010E086FDE0E096F010E0A6FDADC020EEA
:1010CE000401076F020E086FEC0E096F010E0A6F16
:1010DE00D0DC4D0E0B6E190E0C6E4F0E0D6E0D2ECE
:1010EE00FED70C2EFCD70B2EFAD700000000010EF7
:1010FE000401126F24EC00F0010E0401076F020EC2
:10110E00086FF80E096F010E0A6FB3DC020E0401B0
:10111E00076F030E086FD30E096F010E0A6FA9DC5D
:10112E004D0E0B6E190E0C6E4F0E0D6E0D2EFED754
:10113E000C2EFCD70B2EFAD700000000010E040176
:10114E00126F24EC00F0010E0401076F030E086FFE
:10115E00A70E096F010E0A6F8CDC020E0401076FD9
:10116E00020E086FB30E096F010E0A6F82DC4D0E70
:10117E000B6E190E0C6E4F0E0D6E0D2EFED70C2E25
:10118E00FCD70B2EFAD700000000010E0401126FDF
:10119E0024EC00F0010E0401076F010E086FC20E61
:1011AE00096F010E0A6F65DC020E0401076F030E54
:1011BE00086F110E096F010E0A6F5BDC4D0E0B6E80
:1011CE00190E0C6E4F0E0D6E0D2EFED70C2EFCD77B
:1011DE000B2EFAD700000000010E0401126F24EC52
:1011EE0000F0010E0401076F020E086F1F0E096F4B
:1011FE00010E0A6F3EDC020E0401076F020E086F2D
:10120E002E0E096F010E0A6F34DC4D0E0B6E190E89
:10121E000C6E4F0E0D6E0D2EFED70C2EFCD70B2E18
:10122E00FAD700000000010E0401126F24EC00F04A
:10123E00010E0401076F020E086F030E096F010EF7
:10124E000A6F17DC020E0401076F020E086FE00E24
:10125E00096F000E0A6F0DDC4D0E0B6E190E0C6E23
:10126E004F0E0D6E0D2EFED70C2EFCD70B2EFAD771
:10127E0000000000010E0401126F24EC00F0010EBC
:10128E000401076F040E086FEE0E096F000E0A6F51
:10129E0040EC05F0020E0401076F040E086FF80E05
:1012AE00096F000E0A6F40EC05F04D0E0B6E190E15
:1012BE000C6E4F0E0D6E0D2EFED70C2EFCD70B2E78
:1012CE00FAD700000000010E0401126F24EC00F0AA
:1012DE00010E0401076F030E086F4A0E096F010E0F
:1012EE000A6F40EC05F0020E0401076F020E086F44
:1012FE00570E096F010E0A6F40EC05F0660E0B6E6D
:10130E00760E0C6EC10E0D6E0D2EFED70C2EFCD76A
:10131E000B2EFAD7010E0401126F24EC00F0010E11
:10132E000401076F030E086F630E096F010E0A6F3B
:10133E0040EC05F0020E0401076F030E086F3D0E20
:10134E00096F010E0A6F40EC05F0660E0B6E760EFD
:10135E000C6EC10E0D6E0D2EFED70C2EFCD70B2E65
:04136E00FAD7120098
:101372000201265307E1010E0401076F000E086FF8
:10138200E5EC04F022C200F023C201F024C202F014
:1013920025C203F06D0E046E4E0E056EC60E066E6D
:1013A200410E076EF0EC04F0390E0024056E300E8B
:1013B2000120066E000E0220076E000E0320086E4A
:1013C20007C000F008C001F0000E08BEFF0E036E59
:1013D200FF0E00167F0E0116000E0216031600C045
:1013E20022F201C023F202C024F203C025F212004D
:1013F20002012E6B2F6B306B800E2F19006E800E48
:10140200005C02E1100E2E5DD8B0F0EF0FF0010E7D
:10141200206F010E0401126F24EC00F0A7EC00F023
:101422007CEF0FF0010E04010F6F100E106F010E12
:10143200116F66EC00F00F0E0F6F100E296FA7EC04
:1014420000F0830E0401076F0F0E086F020E096F82
:10145200C80E0A6F010E0B6F84EC05F0005205E016
:1014620010C20AF226DC010E0C6F52EC04F0000EE0
:10147200011802E1010E001804E00B51010A01E01B
:1014820004D00F0E2E6F000E2F6F080E0B6E9D0EE6
:101492000C6E050E0D6E0D2EFED70C2EFCD70B2EEC
:1014A200FAD700000000EBEF0FF00E0E0F6F0F0ED9
:1014B200296FA7EC00F021EC06F052EC04F0000ECC
:1014C200011802E1010E001807E10F0E2E6F000E47
:1014D2002F6F206B010E306F3051000A31E152EC58
:1014E20004F00C51010A03E15AEC06F019D0830E04
:1014F2000401076F0F0E086F020E096FC80E0A6F04
:10150200010E0B6F84EC05F000520AE002010C514F
:10151200000A06E110C20AF25AEC06F0010E0C6F44
:1015220052EC04F0000E011802E1010E001804E072
:101532000B51010A01E004D00F0E2E6F000E2F6F27
:10154200080E0B6E9D0E0C6E050E0D6E0D2EFED747
:101552000C2EFCD70B2EFAD700000000EBEF0FF099
:101562000D0E0F6F0E0E296FA7EC00F021EC06F0A6
:1015720052EC04F0000E011802E1010E001807E11E
:101582000F0E2E6F000E2F6F206B010E306F305139
:10159200000A2FE10C51010A03E15AEC06F019D0BE
:1015A200830E0401076F0F0E086F020E096FC80E3B
:1015B2000A6F010E0B6F84EC05F000520AE0020183
:1015C2000C51000A06E110C20AF25AEC06F0010EB2
:1015D2000C6F52EC04F0000E011802E1010E00182B
:1015E20004E00B51010A01E004D00F0E2E6F000E31
:1015F2002F6F080E0B6E9D0E0C6E050E0D6E0D2ECE
:10160200FED70C2EFCD70B2EFAD700000000EBEF12
:101612000FF0010E04010F6F0D0E106F010E116F0E
:1016220066EC00F00C0E0F6F0D0E296FA7EC00F0A8
:1016320021EC06F052EC04F0000E011802E1010E5A
:10164200001807E10F0E2E6F000E2F6F206B010E98
:10165200306F3051000A2FE10C51010A03E15AECBC
:1016620006F019D0830E0401076F0F0E086F020EE9
:10167200096FC80E0A6F010E0B6F84EC05F0005261
:101682000AE002010C51000A06E110C20AF25AEC09
:1016920006F0010E0C6F52EC04F0000E011802E18C
:1016A200010E001804E00B51010A01E004D00F0EF4
:1016B2002E6F000E2F6F080E0B6E9D0E0C6E050E18
:1016C2000D6E0D2EFED70C2EFCD70B2EFAD7000076
:1016D2000000EBEF0FF00B0E0F6F0C0E296FA7EC53
:1016E20000F021EC06F052EC04F0000E011802E1C9
:1016F200010E001807E10F0E2E6F000E2F6F206BE8
:10170200010E306F3051000A2FE10C51010A03E142
:101712005AEC06F019D0830E0401076F0F0E086F02
:10172200020E096FC80E0A6F010E0B6F84EC05F0F2
:1017320000520AE002010C51000A06E110C20AF24C
:101742005AEC06F0010E0C6F52EC04F0000E011878
:1017520002E1010E001804E00B51010A01E004D07D
:101762000F0E2E6F000E2F6F080E0B6E9D0E0C6E5D
:10177200050E0D6E0D2EFED70C2EFCD70B2EFAD7B2
:1017820000000000EBEF0FF0010E04010F6F0B0ED3
:10179200106F010E116F66EC00F00A0E0F6F0B0E48
:1017A200296FA7EC00F021EC06F052EC04F0000ED9
:1017B200011802E1010E001807E10F0E2E6F000E54
:1017C2002F6F206B010E306F3051000A2FE10C5148
:1017D200010A03E15AEC06F019D0830E0401076FE7
:1017E2000F0E086F020E096FC80E0A6F010E0B6F03
:1017F20084EC05F000520AE002010C51000A06E1F5
:1018020010C20AF25AEC06F0010E0C6F52EC04F010
:10181200000E011802E1010E001804E00B51010A4A
:1018220001E004D00F0E2E6F000E2F6F080E0B6E0C
:101832009D0E0C6E050E0D6E0D2EFED70C2EFCD7D6
:101842000B2EFAD700000000C5D3010E04010F6F62
:101852000A0E106F010E116F66EC00F0090E0F6F89
:101862000A0E296FA7EC00F021EC06F052EC04F00E
:10187200000E011802E1010E001807E10F0E2E6F93
:10188200000E2F6F206B010E306F3051000A2FE1D6
:101892000C51010A03E15AEC06F019D0830E04013F
:1018A200076F0F0E086F020E096FC80E0A6F010E46
:1018B2000B6F84EC05F000520AE002010C51000AA1
:1018C20006E110C20AF25AEC06F0010E0C6F52EC5D
:1018D20004F0000E011802E1010E001804E00B51A1
:1018E200010A01E004D00F0E2E6F000E2F6F080EBA
:1018F2000B6E9D0E0C6E050E0D6E0D2EFED70C2E70
:10190200FCD70B2EFAD70000000064D3080E0F6F2D
:10191200090E296FA7EC00F021EC06F052EC04F05E
:10192200000E011802E1010E001807E10F0E2E6FE2
:10193200000E2F6F206B010E306F3051000A2FE125
:101942000C51010A03E15AEC06F019D0830E04018E
:10195200076F0F0E086F020E096FC80E0A6F010E95
:101962000B6F84EC05F000520AE002010C51000AF0
:1019720006E110C20AF25AEC06F0010E0C6F52ECAC
:1019820004F0000E011802E1010E001804E00B51F0
:10199200010A01E004D00F0E2E6F000E2F6F080E09
:1019A2000B6E9D0E0C6E050E0D6E0D2EFED70C2EBF
:1019B200FCD70B2EFAD7000000000CD3010E040155
:1019C2000F6F080E106F010E116F66EC00F0070E1C
:1019D2000F6F080E296FA7EC00F021EC06F052EC15
:1019E20004F0000E011802E1010E001807E10F0ECB
:1019F2002E6F000E2F6F206B010E306F3051000AD8
:101A02002FE10C51010A03E15AEC06F019D0830EC2
:101A12000401076F0F0E086F020E096FC80E0A6FDE
:101A2200010E0B6F84EC05F000520AE002010C512A
:101A3200000A06E110C20AF25AEC06F0010E0C6F1F
:101A420052EC04F0000E011802E1010E001804E04D
:101A52000B51010A01E004D00F0E2E6F000E2F6F02
:101A6200080E0B6E9D0E0C6E050E0D6E0D2EFED722
:101A72000C2EFCD70B2EFAD700000000ABD2010EC1
:101A820004010F6F070E106F010E116F66EC00F06C
:101A9200060E0F6F070E296FA7EC00F021EC06F07F
:101AA20052EC04F0000E011802E1010E001807E1E9
:101AB2000F0E2E6F000E2F6F206B010E306F305104
:101AC200000A2FE10C51010A03E15AEC06F019D089
:101AD200830E0401076F0F0E086F020E096FC80E06
:101AE2000A6F010E0B6F84EC05F000520AE002014E
:101AF2000C51000A06E110C20AF25AEC06F0010E7D
:101B02000C6F52EC04F0000E011802E1010E0018F5
:101B120004E00B51010A01E004D00F0E2E6F000EFB
:101B22002F6F080E0B6E9D0E0C6E050E0D6E0D2E98
:101B3200FED70C2EFCD70B2EFAD7000000004AD29B
:101B4200050E0F6F060E296FA7EC00F021EC06F0D0
:101B520052EC04F0000E011802E1010E001807E138
:101B62000F0E2E6F000E2F6F206B010E306F305153
:101B7200000A2FE10C51010A03E15AEC06F019D0D8
:101B8200830E0401076F0F0E086F020E096FC80E55
:101B92000A6F010E0B6F84EC05F000520AE002019D
:101BA2000C51000A06E110C20AF25AEC06F0010ECC
:101BB2000C6F52EC04F0000E011802E1010E001845
:101BC20004E00B51010A01E004D00F0E2E6F000E4B
:101BD2002F6F080E0B6E9D0E0C6E050E0D6E0D2EE8
:101BE200FED70C2EFCD70B2EFAD700000000F2D144
:101BF200040E0F6F050E296FA7EC00F021EC06F022
:101C020052EC04F0000E011802E1010E001807E187
:101C12000F0E2E6F000E2F6F206B010E306F3051A2
:101C2200000A2FE10C51010A03E15AEC06F019D027
:101C3200830E0401076F0F0E086F020E096FC80EA4
:101C42000A6F010E0B6F84EC05F000520AE00201EC
:101C52000C51000A06E110C20AF25AEC06F0010E1B
:101C62000C6F52EC04F0000E011802E1010E001894
:101C720004E00B51010A01E004D00F0E2E6F000E9A
:101C82002F6F080E0B6E9D0E0C6E050E0D6E0D2E37
:101C9200FED70C2EFCD70B2EFAD7000000009AD1EB
:101CA200010E04010F6F040E106F010E116F66EC2E
:101CB20000F0030E0F6F040E296FA7EC00F021EC69
:101CC20006F052EC04F0000E011802E1010E0018B9
:101CD20007E10F0E2E6F000E2F6F206B010E306F7B
:101CE2003051000A2FE10C51010A03E15AEC06F0CF
:101CF20019D0830E0401076F0F0E086F020E096FD1
:101D0200C80E0A6F010E0B6F84EC05F000520AE058
:101D120002010C51000A06E110C20AF25AEC06F066
:101D2200010E0C6F52EC04F0000E011802E1010EDC
:101D3200001804E00B51010A01E004D00F0E2E6FCF
:101D4200000E2F6F080E0B6E9D0E0C6E050E0D6EA3
:101D52000D2EFED70C2EFCD70B2EFAD7000000005A
:101D620039D1010E04010F6F030E106F010E116FB6
:101D720066EC00F0020E0F6F030E296FA7EC00F065
:101D820021EC06F052EC04F0000E011802E1010E03
:101D9200001807E10F0E2E6F000E2F6F206B010E41
:101DA200306F3051000A2FE10C51010A03E15AEC65
:101DB20006F019D0830E0401076F0F0E086F020E92
:101DC200096FC80E0A6F010E0B6F84EC05F000520A
:101DD2000AE002010C51000A06E110C20AF25AECB2
:101DE20006F0010E0C6F52EC04F0000E011802E135
:101DF200010E001804E00B51010A01E004D00F0E9D
:101E02002E6F000E2F6F080E0B6E9D0E0C6E050EC0
:101E12000D6E0D2EFED70C2EFCD70B2EFAD700001E
:101E22000000D8D0010E04010F6F020E106F010ED8
:101E3200116F66EC00F0010E0F6F020E296F010E9A
:101E42000D6FA7EC00F021EC06F052EC04F0000E4E
:101E5200011802E1010E001807E10F0E2E6F000EAD
:101E62002F6F206B010E306F3051000A35E10C519B
:101E7200010A03E15AEC06F019D0830E0401076F40
:101E82000F0E086F020E096FC80E0A6F010E0B6F5C
:101E920084EC05F000520AE002010C51000A06E14E
:101EA20010C20AF25AEC06F0010E0C6F52EC04F06A
:101EB200000E011802E1010E001804E00B51010AA4
:101EC20001E005D00F0E2E6F000E2F6F05D00D51C1
:101ED200010A02E1BDEC06F0080E0B6E9D0E0C6EBF
:101EE200050E0D6E0D2EFED70C2EFCD70B2EFAD73B
:101EF200000000006FD0000E02012F1902E1010E56
:101F02002E19D8B413EF0AF0000E2F1902E1020EB7
:101F12002E19D8B456EF0AF0000E2F1902E1030E63
:101F22002E19D8B4B1EF0AF0000E2F1902E1040EF7
:101F32002E19D8B40AEF0BF0000E2F1902E1050E8C
:101F42002E19D8B46CEF0BF0000E2F1902E1060E19
:101F52002E19D8B419D4000E2F1902E1070E2E192A
:101F6200D8B473D4000E2F1902E1080E2E19D8B47A
:101F7200CDD4000E2F1902E1090E2E19D8B41ED5A8
:101F8200000E2F1902E10A0E2E19D8B478D5000ED0
:101F92002F1902E10B0E2E19D8B4D2D5000E2F192B
:101FA20002E10C0E2E19D8B423D6000E2F1902E12D
:101FB2000D0E2E19D8B474D6000E2F1902E10E0E92
:101FC2002E19D8B4CED6000E2F1902E10F0E2E19FB
:101FD200D8B428D702012E4B2F2BFDEF09F0020EA9
:101FE200116F0F6B096B086B216B0A6B0C6B296B02
:081FF2000B6B306B206B120039
:101FFA0032C207F4000E0401086FE5EC04F0B9ECF4
:10200A0009F0FF0E046E000E056EBEEC05F008C066
:10201A0000F009C001F000C02EF201C02FF2800EBC
:10202A000118026E800E025C02E1000E005C0FE3F2
:10203A00800E02012F19006E800E005C02E1320E42
:10204A002E5D05E2010E306F000E316F5CD0020189
:10205A00800E2F19006E800E005C02E1320E2E5D9A
:10206A000EE3800E2F19006E800E005C02E1640EF2
:10207A002E5D05E2020E306F000E316F44D0800EE5
:10208A002F19006E800E005C02E1640E2E5D0EE3D5
:10209A00800E2F19006E800E005C02E1960E2E5DF6
:1020AA0005E2030E306F000E316F2DD0800E2F190E
:1020BA00006E800E005C02E1960E2E5D0EE3800E2D
:1020CA002F19006E800E005C02E1C80E2E5D05E23B
:1020DA00040E306F000E316F16D0800E2F19006E6D
:1020EA00800E005C02E1C80E2E5D0DE3800E2F19F2
:1020FA00006E800E005C02E1FF0E2E5D04E2050E0A
:10210A00306F000E316F30C200F031C201F01200A0
:10211A00939093929398939A939C939E8A908A927F
:10212A008A9E8A9C8A9A8A980EEC00F00EEC00F03D
:10213A000EEC00F08A8A8A888A801EEC00F08A9067
:10214A000EEC00F08A801EEC00F08A900EEC00F093
:10215A008A801EEC00F08A900EEC00F08A988A8041
:10216A001EEC00F08A900EEC00F08A801EEC00F063
:10217A008A908A9A8A8E8A801EEC00F08A900EECE7
:10218A0000F08A9E8A888A801EEC00F08A908A98DB
:10219A008A801EEC00F08A900EEC00F08A801EEC19
:1021AA0000F08A908A888A801EEC00F08A900EECF1
:1021BA0000F08A988A801EEC00F08A908A8E8A8CB7
:1021CA008A8A8A888A801EEC00F08A900EEC00F0D7
:0621DA0002012781120042
:1021E000D30EF66E7B0EF76E000EF86E2E0EE16EBD
:1021F000020EE26ED80E006E020E016EB5EC06F015
:10220000010E0401126F24EC00F0010E0401076FAF
:10221000030E086F2E0E096F020E0A6F40EC05F0D8
:10222000020E0401076F040E086F3B0E096F020EC9
:102230000A6F40EC05F07F0E0B6ED40E0C6E310E63
:102240000D6E0D2EFED70C2EFCD70B2EFAD70000EC
:102250000000010E0401126F24EC00F0010E0401D5
:10226000076F030E086FE90E096F030E0A6F40EC4B
:1022700005F0020E0401076F010E086FF50E096FDD
:10228000030E0A6F40EC05F07F0E0B6ED40E0C6E41
:10229000310E0D6E0D2EFED70C2EFCD70B2EFAD75D
:1022A00000000000010E0401126F24EC00F0010E8A
:1022B0000401076F030E086F450E096F020E0A6FC7
:1022C00040EC05F0020E0401076F030E086F4E0E7E
:1022D000096F020E0A6F40EC05F0010E0401076F52
:1022E0000C0E086FA20E096F030E0A6F40EC05F08A
:1022F000070E0B6E580E0C6E590E0D6E0D2EFED77E
:102300000C2EFCD70B2EFAD700000000830E040120
:10231000076F0F0E086F096BC80E0A6F010E0B6F67
:1023200084EC05F00052D8B449D2010E126F24ECAF
:1023300000F0010E0401076F060E086F720E096FA0
:10234000020E0A6F40EC05F0020E0401076F040E46
:10235000086F790E096F020E0A6F40EC05F0660EE9
:102360000B6E760E0C6EC10E0D6E0D2EFED70C2E62
:10237000FCD70B2EFAD7830E0401076F0F0E086FE0
:10238000096BC80E0A6F010E0B6F84EC05F000524A
:1023900001E0F5D1010E126F24EC00F0010E0401F2
:1023A000076F030E086F840E096F020E0A6F40EC70
:1023B00005F0020E0401076F060E086F910E096FFB
:1023C000020E0A6F40EC05F0660E0B6E760E0C6E78
:1023D000C10E0D6E0D2EFED70C2EFCD70B2EFAD78C
:1023E000830E0401076F0F0E086F096BC80E0A6F8A
:1023F000010E0B6F84EC05F0005201E0C0D1010E1C
:10240000126F24EC00F0010E0401076F010E086F3B
:10241000980E096F020E0A6F40EC05F0020E0401DF
:10242000076F020E086FA90E096F020E0A6F40ECCB
:1024300005F0660E0B6E760E0C6EC10E0D6E0D2E37
:10244000FED70C2EFCD70B2EFAD7830E0401076F94
:102450000F0E086F096BC80E0A6F010E0B6F84EC2C
:1024600005F0005201E08BD1010E126F24EC00F058
:10247000010E0401076F030E086FB80E096F020EFC
:102480000A6F40EC05F0020E0401076F010E086FA1
:10249000C40E096F020E0A6F40EC05F0660E0B6E5B
:1024A000760E0C6EC10E0D6E0D2EFED70C2EFCD7C7
:1024B0000B2EFAD7830E0401076F0F0E086F096BFE
:1024C000C80E0A6F010E0B6F84EC05F0005201E09C
:1024D00056D1010E126F24EC00F0010E0401076FBB
:1024E000020E086FD50E096F020E0A6F40EC05F060
:1024F000020E0401076F010E086FE30E096F020E52
:102500000A6F40EC05F0660E0B6E760E0C6EC10E77
:102510000D6E0D2EFED70C2EFCD70B2EFAD7830E88
:102520000401076F0F0E086F096BC80E0A6F010ECA
:102530000B6F84EC05F0005201E021D1010E126F07
:1025400024EC00F0010E0401076F020E086FF30E79
:10255000096F020E0A6F40EC05F0020E0401076FCE
:10256000030E086F030E096F030E0A6F40EC05F0AF
:10257000660E0B6E760E0C6EC10E0D6E0D2EFED716
:102580000C2EFCD70B2EFAD7830E0401076F0F0E0B
:10259000086F096BC80E0A6F010E0B6F84EC05F013
:1025A000005201E0ECD0010E126F24EC00F0010E9D
:1025B0000401076F020E086F100E096F030E0A6FF9
:1025C00040EC05F0020E0401076F010E086F1F0EAC
:1025D000096F030E0A6F40EC05F0660E0B6E760E67
:1025E0000C6EC10E0D6E0D2EFED70C2EFCD70B2ED1
:1025F000FAD7830E0401076F0F0E086F096BC80E20
:102600000A6F010E0B6F84EC05F0005201E0B7D0A9
:10261000010E126F24EC00F0010E0401076F010E91
:10262000086F300E096F030E0A6F40EC05F0020EC2
:102630000401076F020E086F400E096F030E0A6F48
:1026400040EC05F0660E0B6E760E0C6EC10E0D6E34
:102650000D2EFED70C2EFCD70B2EFAD7830E0401BD
:10266000076F0F0E086F096BC80E0A6F010E0B6F14
:1026700084EC05F0005201E082D0010E126F24ECD0
:1026800000F0010E0401076F010E086F4F0E096F75
:10269000030E0A6F40EC05F0020E0401076F040EF2
:1026A000086F600E096F030E0A6F40EC05F0660EAE
:1026B0000B6E760E0C6EC10E0D6E0D2EFED70C2E0F
:1026C000FCD70B2EFAD7830E0401076F0F0E086F8D
:1026D000096BC80E0A6F010E0B6F84EC05F00052F7
:1026E00001E04DD0010E126F24EC00F0010E040148
:1026F000076F010E086F6B0E096F030E0A6F40EC37
:1027000005F0020E0401076F020E086F7C0E096FC0
:10271000030E0A6F40EC05F0660E0B6E760E0C6E23
:10272000C10E0D6E0D2EFED70C2EFCD70B2EFAD738
:10273000010E0401126F24EC00F0010E0401076F7A
:10274000010E086F890E096F030E0A6F40EC05F049
:10275000020E0401076F040E086F960E096F030E38
:102760000A6F40EC05F0660E0B6E760E0C6EC10E15
:102770000D6E0D2EFED70C2EFCD70B2EFAD7010EA8
:102780000401126F24EC00F0010E0401076F050E26
:10279000086FE10E096F030E0A6F40EC05F07F0E23
:1027A0000B6ED40E0C6E310E0D6E0D2EFED70C2E50
:1027B000FCD70B2EFAD700000000E3D0830E0401F3
:1027C000076F0F0E086F010E096FC80E0A6F010E1A
:1027D0000B6F84EC05F0005244E0010E126F24EC04
:1027E00000F0010E0401076F010E086F540E096F0F
:1027F000020E0A6F40EC05F0020E0401076F010E95
:10280000086F660E096F020E0A6F40EC05F0020EAB
:102810000401076F0D0E086F6E0E096F020E0A6F2E
:1028200040EC05F0100E0B6E390E0C6E0D0E0D6E99
:102830000D2EFED70C2EFCD70B2EFAD70000000071
:10284000830E0401076F0F0E086F010E096FC80E8B
:102850000A6F010E0B6F84EC05F0005201E022D5E7
:10286000BCD7830E076F0F0E086F020E096FC80EDC
:102870000A6F010E0B6F84EC05F00052D8B480D0C3
:10288000830E076F0F0E086F010E096FC80E0A6FD7
:10289000010E0B6F84EC05F0005201E003D5010E30
:1028A000126F24EC00F0010E0401076F010E086F97
:1028B000A70E096F030E0A6F40EC05F0020E04012B
:1028C000076F010E086FB30E096F030E0A6F40EC1D
:1028D00005F0330E0B6EBB0E0C6EDF0E0D6E0D2E63
:1028E000FED70C2EFCD70B2EFAD700000000830E6B
:1028F0000401076F0F0E086F010E096FC80E0A6FF3
:10290000010E0B6F84EC05F0005201E0CBD4010EF8
:10291000126F24EC00F0010E0401076F010E086F26
:10292000C10E096F030E0A6F40EC05F0020E0401A0
:10293000076F010E086FD00E096F030E0A6F40EC8F
:1029400005F0330E0B6EBB0E0C6EDF0E0D6E0D2EF2
:10295000FED70C2EFCD70B2EFAD700000000830EFA
:102960000401076F0F0E086F010E096FC80E0A6F82
:10297000010E0B6F84EC05F0005201E093D480D778
:0429800091D41200DC
:10298400400E0401126F24EC00F02E6B2E51070848
:1029940012E3CB0E2E25F66E7D0EF76E000EF72297
:1029A400000EF86E000EF8220900F5CF0EF496EC36
:1029B40000F02E2BEBD72E6B2E51070812E3C30E1B
:1029C4002E25F66E7D0EF76E000EF722000EF86EC1
:1029D400000EF8220900F5CF0EF496EC00F02E2B31
:1029E400EBD72E6B2E51070812E3D30E2E25F66E6D
:1029F4007D0EF76E000EF722000EF86E000EF82220
:102A04000900F5CF0EF496EC00F02E2BEBD72E6BCD
:102A14002E51070812E3E30E2E25F66E7D0EF76E97
:102A2400000EF722000EF86E000EF8220900F5CF12
:102A34000EF496EC00F02E2BEBD72E6B2E510708DC
:102A440012E3DB0E2E25F66E7D0EF76E000EF722D6
:102A5400000EF86E000EF8220900F5CF0EF496EC85
:102A640000F02E2BEBD72E6B2E51070812E3AB0E82
:102A74002E25F66E7D0EF76E000EF722000EF86E10
:102A8400000EF8220900F5CF0EF496EC00F02E2B80
:102A9400EBD72E6B2E51070812E3B30E2E25F66EDC
:102AA4007D0EF76E000EF722000EF86E000EF8226F
:102AB4000900F5CF0EF496EC00F02E2BEBD72E6B1D
:102AC4002E51070812E3BB0E2E25F66E7D0EF76E0F
:102AD400000EF722000EF86E000EF8220900F5CF62
:0C2AE4000EF496EC00F02E2BEBD7120045
:102AF00002012E6B2F6B306B800E2F19006E800E33
:102B0000005C02E1100E2E5DD8B0A7EF1BF0010EA5
:102B1000206F010E0401126F24EC00F0A7EC00F00E
:102B200032EF1BF0010E04010F6F100E106F010E3B
:102B3000116F66EC00F00F0E0F6F100E296FA7ECEF
:102B400000F0830E0401076F0F0E086F020E096F6D
:102B5000C80E0A6F010E0B6F84EC05F0005206E000
:102B600010C20AF25AEC06F0010E0C6F52EC04F09F
:102B7000000E011802E1010E001804E00B51010AD9
:102B800001E004D00F0E2E6F000E2F6F080E0B6E9B
:102B90009D0E0C6E050E0D6E0D2EFED70C2EFCD765
:102BA0000B2EFAD700000000A2EF1BF0010E04016B
:102BB0000F6F0F0E106F010E116F66EC00F00E0E0E
:102BC0000F6F0F0E296FA7EC00F021EC06F052EC0E
:102BD00004F0000E011802E1010E001807E10F0ECB
:102BE0002E6F000E2F6F206B010E306F3051000AD8
:102BF00031E152EC04F00C51010A03E15AEC06F009
:102C000019D0830E0401076F0F0E086F020E096FB3
:102C1000C80E0A6F010E0B6F84EC05F000520AE03B
:102C200002010C51000A06E110C20AF25AEC06F049
:102C3000010E0C6F52EC04F0000E011802E1010EBF
:102C4000001804E00B51010A01E004D00F0E2E6FB2
:102C5000000E2F6F080E0B6E9D0E0C6E050E0D6E86
:102C60000D2EFED70C2EFCD70B2EFAD7000000003D
:102C7000A2EF1BF0010E04010F6F0E0E106F010E7C
:102C8000116F66EC00F00D0E0F6F0E0E296FA7ECA2
:102C900000F021EC06F052EC04F0000E011802E105
:102CA000010E001807E10F0E2E6F000E2F6F206B24
:102CB000010E306F3051000A2FE10C51010A03E17F
:102CC0005AEC06F019D0830E0401076F0F0E086F3F
:102CD000020E096FC80E0A6F010E0B6F84EC05F02F
:102CE00000520AE002010C51000A06E110C20AF289
:102CF0005AEC06F0010E0C6F52EC04F0000E0118B5
:102D000002E1010E001804E00B51010A01E004D0B9
:102D10000F0E2E6F000E2F6F080E0B6E9D0E0C6E99
:102D2000050E0D6E0D2EFED70C2EFCD70B2EFAD7EE
:102D300000000000A2EF1BF0010E04010F6F0D0E4A
:102D4000106F010E116F66EC00F00C0E0F6F0D0E80
:102D5000296FA7EC00F021EC06F052EC04F0000E15
:102D6000011802E1010E001807E10F0E2E6F000E90
:102D70002F6F206B010E306F3051000A2FE10C5184
:102D8000010A03E15AEC06F019D0830E0401076F23
:102D90000F0E086F020E096FC80E0A6F010E0B6F3F
:102DA00084EC05F000520AE002010C51000A06E131
:102DB00010C20AF25AEC06F0010E0C6F52EC04F04D
:102DC000000E011802E1010E001804E00B51010A87
:102DD00001E004D00F0E2E6F000E2F6F080E0B6E49
:102DE0009D0E0C6E050E0D6E0D2EFED70C2EFCD713
:102DF0000B2EFAD700000000A2EF1BF0010E040119
:102E00000F6F0C0E106F010E116F66EC00F00B0EC1
:102E10000F6F0C0E296FA7EC00F021EC06F052ECBE
:102E200004F0000E011802E1010E001807E10F0E78
:102E30002E6F000E2F6F206B010E306F3051000A85
:102E40002FE10C51010A03E15AEC06F019D0830E70
:102E50000401076F0F0E086F020E096FC80E0A6F8C
:102E6000010E0B6F84EC05F000520AE002010C51D8
:102E7000000A06E110C20AF25AEC06F0010E0C6FCD
:102E800052EC04F0000E011802E1010E001804E0FB
:102E90000B51010A01E004D00F0E2E6F000E2F6FB0
:102EA000080E0B6E9D0E0C6E050E0D6E0D2EFED7D0
:102EB0000C2EFCD70B2EFAD700000000A2EF1BF05F
:102EC000010E04010F6F0B0E106F010E116F66ECF7
:102ED00000F00A0E0F6F0B0E296FA7EC00F021EC2B
:102EE00006F052EC04F0000E011802E1010E001889
:102EF00007E10F0E2E6F000E2F6F206B010E306F4B
:102F00003051000A2FE10C51010A03E15AEC06F09E
:102F100019D0830E0401076F0F0E086F020E096FA0
:102F2000C80E0A6F010E0B6F84EC05F000520AE028
:102F300002010C51000A06E110C20AF25AEC06F036
:102F4000010E0C6F52EC04F0000E011802E1010EAC
:102F5000001804E00B51010A01E004D00F0E2E6F9F
:102F6000000E2F6F080E0B6E9D0E0C6E050E0D6E73
:102F70000D2EFED70C2EFCD70B2EFAD7000000002A
:102F8000E1D3010E04010F6F0A0E106F010E116FD5
:102F900066EC00F0090E0F6F0A0E296FA7EC00F027
:102FA00021EC06F052EC04F0000E011802E1010ED3
:102FB000001807E10F0E2E6F000E2F6F206B010E11
:102FC000306F3051000A2FE10C51010A03E15AEC35
:102FD00006F019D0830E0401076F0F0E086F020E62
:102FE000096FC80E0A6F010E0B6F84EC05F00052DA
:102FF0000AE002010C51000A06E110C20AF25AEC82
:1030000006F0010E0C6F52EC04F0000E011802E104
:10301000010E001804E00B51010A01E004D00F0E6C
:103020002E6F000E2F6F080E0B6E9D0E0C6E050E90
:103030000D6E0D2EFED70C2EFCD70B2EFAD70000EE
:10304000000080D3010E04010F6F090E106F010EF6
:10305000116F66EC00F0080E0F6F090E296FA7ECD8
:1030600000F021EC06F052EC04F0000E011802E131
:10307000010E001807E10F0E2E6F000E2F6F206B50
:10308000010E306F3051000A2FE10C51010A03E1AB
:103090005AEC06F019D0830E0401076F0F0E086F6B
:1030A000020E096FC80E0A6F010E0B6F84EC05F05B
:1030B00000520AE002010C51000A06E110C20AF2B5
:1030C0005AEC06F0010E0C6F52EC04F0000E0118E1
:1030D00002E1010E001804E00B51010A01E004D0E6
:1030E0000F0E2E6F000E2F6F080E0B6E9D0E0C6EC6
:1030F000050E0D6E0D2EFED70C2EFCD70B2EFAD71B
:10310000000000001FD3010E04010F6F080E106FA6
:10311000010E116F66EC00F0070E0F6F080E296F9D
:10312000A7EC00F021EC06F052EC04F0000E0118C0
:1031300002E1010E001807E10F0E2E6F000E2F6F37
:10314000206B010E306F3051000A2FE10C51010A43
:1031500003E15AEC06F019D0830E0401076F0F0E3D
:10316000086F020E096FC80E0A6F010E0B6F84EC18
:1031700005F000520AE002010C51000A06E110C2FB
:103180000AF25AEC06F0010E0C6F52EC04F0000E3D
:10319000011802E1010E001804E00B51010A01E0E0
:1031A00004D00F0E2E6F000E2F6F080E0B6E9D0EAB
:1031B0000C6E050E0D6E0D2EFED70C2EFCD70B2EB1
:1031C000FAD700000000BED2010E04010F6F070EF7
:1031D000106F010E116F66EC00F0060E0F6F070EF8
:1031E000296FA7EC00F021EC06F052EC04F0000E81
:1031F000011802E1010E001807E10F0E2E6F000EFC
:103200002F6F206B010E306F3051000A2FE10C51EF
:10321000010A03E15AEC06F019D0830E0401076F8E
:103220000F0E086F020E096FC80E0A6F010E0B6FAA
:1032300084EC05F000520AE002010C51000A06E19C
:1032400010C20AF25AEC06F0010E0C6F52EC04F0B8
:10325000000E011802E1010E001804E00B51010AF2
:1032600001E004D00F0E2E6F000E2F6F080E0B6EB4
:103270009D0E0C6E050E0D6E0D2EFED70C2EFCD77E
:103280000B2EFAD7000000005DD2010E04010F6F73
:10329000060E106F010E116F66EC00F0050E0F6F39
:1032A000060E296FA7EC00F021EC06F052EC04F0BA
:1032B000000E011802E1010E001807E10F0E2E6F3B
:1032C000000E2F6F206B010E306F3051000A2FE17E
:1032D0000C51010A03E15AEC06F019D0830E0401E7
:1032E000076F0F0E086F020E096FC80E0A6F010EEE
:1032F0000B6F84EC05F000520AE002010C51000A49
:1033000006E110C20AF25AEC06F0010E0C6F52EC04
:1033100004F0000E011802E1010E001804E00B5148
:10332000010A01E004D00F0E2E6F000E2F6F080E61
:103330000B6E9D0E0C6E050E0D6E0D2EFED70C2E17
:10334000FCD70B2EFAD700000000FCD1010E0401BF
:103350000F6F050E106F010E116F66EC00F0040E7A
:103360000F6F050E296FA7EC00F021EC06F052EC70
:1033700004F0000E011802E1010E001807E10F0E23
:103380002E6F000E2F6F206B010E306F3051000A30
:103390002FE10C51010A03E15AEC06F019D0830E1B
:1033A0000401076F0F0E086F020E096FC80E0A6F37
:1033B000010E0B6F84EC05F000520AE002010C5183
:1033C000000A06E110C20AF25AEC06F0010E0C6F78
:1033D00052EC04F0000E011802E1010E001804E0A6
:1033E0000B51010A01E004D00F0E2E6F000E2F6F5B
:1033F000080E0B6E9D0E0C6E050E0D6E0D2EFED77B
:103400000C2EFCD70B2EFAD7000000009BD1010E2A
:1034100004010F6F040E106F010E116F66EC00F0C7
:10342000030E0F6F040E296FA7EC00F021EC06F0DD
:1034300052EC04F0000E011802E1010E001807E141
:103440000F0E2E6F000E2F6F206B010E306F30515C
:10345000000A2FE10C51010A03E15AEC06F019D0E1
:10346000830E0401076F0F0E086F020E096FC80E5E
:103470000A6F010E0B6F84EC05F000520AE00201A6
:103480000C51000A06E110C20AF25AEC06F0010ED5
:103490000C6F52EC04F0000E011802E1010E00184E
:1034A00004E00B51010A01E004D00F0E2E6F000E54
:1034B0002F6F080E0B6E9D0E0C6E050E0D6E0D2EF1
:1034C000FED70C2EFCD70B2EFAD7000000003AD105
:1034D000010E04010F6F030E106F010E116F66ECE9
:1034E00000F0020E0F6F030E296FA7EC00F021EC25
:1034F00006F052EC04F0000E011802E1010E001873
:1035000007E10F0E2E6F000E2F6F206B010E306F34
:103510003051000A2FE10C51010A03E15AEC06F088
:1035200019D0830E0401076F0F0E086F020E096F8A
:10353000C80E0A6F010E0B6F84EC05F000520AE012
:1035400002010C51000A06E110C20AF25AEC06F020
:10355000010E0C6F52EC04F0000E011802E1010E96
:10356000001804E00B51010A01E004D00F0E2E6F89
:10357000000E2F6F080E0B6E9D0E0C6E050E0D6E5D
:103580000D2EFED70C2EFCD70B2EFAD70000000014
:10359000D9D0010E04010F6F020E106F010E116FD2
:1035A00066EC00F0010E0F6F020E296F010E0D6F19
:1035B000A7EC00F021EC06F052EC04F0000E01182C
:1035C00002E1010E001807E10F0E2E6F000E2F6FA3
:1035D000206B010E306F3051000A35E10C51010AA9
:1035E00003E15AEC06F019D0830E0401076F0F0EA9
:1035F000086F020E096FC80E0A6F010E0B6F84EC84
:1036000005F000520AE002010C51000A06E110C266
:103610000AF25AEC06F0010E0C6F52EC04F0000EA8
:10362000011802E1010E001804E00B51010A01E04B
:1036300005D00F0E2E6F000E2F6F05D00D51010A11
:1036400002E1BDEC06F0080E0B6E9D0E0C6E050E31
:103650000D6E0D2EFED70C2EFCD70B2EFAD70000C8
:10366000000070D0000E02012F1902E1010E2E1988
:10367000D8B492EF15F0000E2F1902E1020E2E19A8
:10368000D8B4D6EF15F0000E2F1902E1030E2E1953
:10369000D8B43AEF16F0000E2F1902E1040E2E19DD
:1036A000D8B49CEF16F0000E2F1902E1050E2E196A
:1036B000D8B4FEEF16F0000E2F1902E1060E2E19F7
:1036C000D8B460EF17F0000E2F1902E1070E2E1983
:1036D000D8B457D4000E2F1902E1080E2E19D8B411
:1036E000B1D4000E2F1902E1090E2E19D8B40BD552
:1036F000000E2F1902E10A0E2E19D8B465D5000E5E
:103700002F1902E10B0E2E19D8B4BFD5000E2F19B8
:1037100002E10C0E2E19D8B419D6000E2F1902E1B1
:103720000D0E2E19D8B473D6000E2F1902E10E0E0D
:103730002E19D8B4CDD6000E2F1902E10F0E2E1976
:10374000D8B427D702012E4B2F2B7CEF15F0020E99
:10375000116F0F6B096B086B216B0A6B0C6B296B7C
:0A3760000B6B306B206B1F6B120027
:10376A0002012E6B2F6B306B800E2F19006E800EAC
:10377A00005C02E1100E2E5DD8B0E2EF21F0020EDD
:10378A000E6F010E0401126F24EC00F0A7EC00F09A
:10379A006DEF21F0020E04010F6F100E106F020E72
:1037AA00116F66EC00F00F0E096F100E286F830E72
:1037BA000401076F0F0E086F020E096FC80E0A6F19
:1037CA00010E0B6F84EC05F0005206E010C20AF2FB
:1037DA005AEC06F0010E0C6F52EC04F0000E0118C0
:1037EA0002E1010E001804E00B51010A01E004D0C5
:1037FA000F0E2E6F000E2F6F080E0B6E9D0E0C6EA5
:10380A00050E0D6E0D2EFED70C2EFCD70B2EFAD7F9
:10381A0000000000DDEF21F0020E04010F6F0F0E11
:10382A00106F020E116F66EC00F00E0E096F0F0E8C
:10383A00286FA7EC00F021EC06F052EC04F0000E21
:10384A00011802E1010E001807E10F0E2E6F000E9B
:10385A002F6F0E6B010E306F3051000A2FE10C51A1
:10386A00010A03E15AEC06F019D0830E0401076F2E
:10387A000F0E086F020E096FC80E0A6F010E0B6F4A
:10388A0084EC05F000520AE002010C51000A06E13C
:10389A0010C20AF25AEC06F0010E0C6F52EC04F058
:1038AA00000E011802E1010E001804E00B51010A92
:1038BA0001E004D00F0E2E6F000E2F6F080E0B6E54
:1038CA009D0E0C6E050E0D6E0D2EFED70C2EFCD71E
:1038DA000B2EFAD700000000DDEF21F0020E0401E2
:1038EA000F6F0E0E106F020E116F66EC00F00D0EC8
:1038FA00096F0E0E286FA7EC00F021EC06F052ECCF
:10390A0004F0000E011802E1010E001807E10F0E83
:10391A002E6F000E2F6F0E6B010E306F3051000AA2
:10392A002FE10C51010A03E15AEC06F019D0830E7B
:10393A000401076F0F0E086F020E096FC80E0A6F97
:10394A00010E0B6F84EC05F000520AE002010C51E3
:10395A00000A06E110C20AF25AEC06F0010E0C6FD8
:10396A0052EC04F0000E011802E1010E001804E006
:10397A000B51010A01E004D00F0E2E6F000E2F6FBB
:10398A00080E0B6E9D0E0C6E050E0D6E0D2EFED7DB
:10399A000C2EFCD70B2EFAD700000000DDEF21F029
:1039AA00020E04010F6F0D0E106F020E116F66ECFE
:1039BA0000F00C0E096F0D0E286FA7EC00F021EC39
:1039CA0006F052EC04F0000E011802E1010E001894
:1039DA0007E10F0E2E6F000E2F6F0E6B010E306F68
:1039EA003051000A2FE10C51010A03E15AEC06F0AA
:1039FA0019D0830E0401076F0F0E086F020E096FAC
:103A0A00C80E0A6F010E0B6F84EC05F000520AE033
:103A1A0002010C51000A06E110C20AF25AEC06F041
:103A2A00010E0C6F52EC04F0000E011802E1010EB7
:103A3A00001804E00B51010A01E004D00F0E2E6FAA
:103A4A00000E2F6F080E0B6E9D0E0C6E050E0D6E7E
:103A5A000D2EFED70C2EFCD70B2EFAD70000000035
:103A6A00DDEF21F0020E04010F6F0C0E106F020E33
:103A7A00116F66EC00F00B0E096F0C0E286FA7ECA5
:103A8A0000F021EC06F052EC04F0000E011802E1FD
:103A9A00010E001807E10F0E2E6F000E2F6F0E6B2E
:103AAA00010E306F3051000A2FE10C51010A03E177
:103ABA005AEC06F019D0830E0401076F0F0E086F37
:103ACA00020E096FC80E0A6F010E0B6F84EC05F027
:103ADA0000520AE002010C51000A06E110C20AF281
:103AEA005AEC06F0010E0C6F52EC04F0000E0118AD
:103AFA0002E1010E001804E00B51010A01E004D0B2
:103B0A000F0E2E6F000E2F6F080E0B6E9D0E0C6E91
:103B1A00050E0D6E0D2EFED70C2EFCD70B2EFAD7E6
:103B2A0000000000DDEF21F0020E04010F6F0B0E02
:103B3A00106F020E116F66EC00F00A0E096F0B0E81
:103B4A00286FA7EC00F021EC06F052EC04F0000E0E
:103B5A00011802E1010E001807E10F0E2E6F000E88
:103B6A002F6F0E6B010E306F3051000A2FE10C518E
:103B7A00010A03E15AEC06F019D0830E0401076F1B
:103B8A000F0E086F020E096FC80E0A6F010E0B6F37
:103B9A0084EC05F000520AE002010C51000A06E129
:103BAA0010C20AF25AEC06F0010E0C6F52EC04F045
:103BBA00000E011802E1010E001804E00B51010A7F
:103BCA0001E004D00F0E2E6F000E2F6F080E0B6E41
:103BDA009D0E0C6E050E0D6E0D2EFED70C2EFCD70B
:103BEA000B2EFAD700000000E3D3020E04010F6F78
:103BFA000A0E106F020E116F66EC00F0090E096FC3
:103C0A000A0E286FA7EC00F021EC06F052EC04F043
:103C1A00000E011802E1010E001807E10F0E2E6FC7
:103C2A00000E2F6F0E6B010E306F3051000A2FE11C
:103C3A000C51010A03E15AEC06F019D0830E040173
:103C4A00076F0F0E086F020E096FC80E0A6F010E7A
:103C5A000B6F84EC05F000520AE002010C51000AD5
:103C6A0006E110C20AF25AEC06F0010E0C6F52EC91
:103C7A0004F0000E011802E1010E001804E00B51D5
:103C8A00010A01E004D00F0E2E6F000E2F6F080EEE
:103C9A000B6E9D0E0C6E050E0D6E0D2EFED70C2EA4
:103CAA00FCD70B2EFAD70000000082D3020E0401C3
:103CBA000F6F090E106F020E116F66EC00F0080EFE
:103CCA00096F090E286FA7EC00F021EC06F052EC00
:103CDA0004F0000E011802E1010E001807E10F0EB0
:103CEA002E6F000E2F6F0E6B010E306F3051000ACF
:103CFA002FE10C51010A03E15AEC06F019D0830EA8
:103D0A000401076F0F0E086F020E096FC80E0A6FC3
:103D1A00010E0B6F84EC05F000520AE002010C510F
:103D2A00000A06E110C20AF25AEC06F0010E0C6F04
:103D3A0052EC04F0000E011802E1010E001804E032
:103D4A000B51010A01E004D00F0E2E6F000E2F6FE7
:103D5A00080E0B6E9D0E0C6E050E0D6E0D2EFED707
:103D6A000C2EFCD70B2EFAD70000000021D3020E2E
:103D7A0004010F6F080E106F020E116F66EC00F04F
:103D8A00070E096F080E286FA7EC00F021EC06F069
:103D9A0052EC04F0000E011802E1010E001807E1CE
:103DAA000F0E2E6F000E2F6F0E6B010E306F3051FB
:103DBA00000A2FE10C51010A03E15AEC06F019D06E
:103DCA00830E0401076F0F0E086F020E096FC80EEB
:103DDA000A6F010E0B6F84EC05F000520AE0020133
:103DEA000C51000A06E110C20AF25AEC06F0010E62
:103DFA000C6F52EC04F0000E011802E1010E0018DB
:103E0A0004E00B51010A01E004D00F0E2E6F000EE0
:103E1A002F6F080E0B6E9D0E0C6E050E0D6E0D2E7D
:103E2A00FED70C2EFCD70B2EFAD700000000C0D20A
:103E3A00020E04010F6F070E106F020E116F66EC6F
:103E4A0000F0060E096F070E286FA7EC00F021ECB0
:103E5A0006F052EC04F0000E011802E1010E0018FF
:103E6A0007E10F0E2E6F000E2F6F0E6B010E306FD3
:103E7A003051000A2FE10C51010A03E15AEC06F015
:103E8A0019D0830E0401076F0F0E086F020E096F17
:103E9A00C80E0A6F010E0B6F84EC05F000520AE09F
:103EAA0002010C51000A06E110C20AF25AEC06F0AD
:103EBA00010E0C6F52EC04F0000E011802E1010E23
:103ECA00001804E00B51010A01E004D00F0E2E6F16
:103EDA00000E2F6F080E0B6E9D0E0C6E050E0D6EEA
:103EEA000D2EFED70C2EFCD70B2EFAD700000000A1
:103EFA005FD2020E04010F6F060E106F020E116FD1
:103F0A0066EC00F0050E096F060E286FA7EC00F0AC
:103F1A0021EC06F052EC04F0000E011802E1010E49
:103F2A00001807E10F0E2E6F000E2F6F0E6B010E99
:103F3A00306F3051000A2FE10C51010A03E15AECAB
:103F4A0006F019D0830E0401076F0F0E086F020ED8
:103F5A00096FC80E0A6F010E0B6F84EC05F0005250
:103F6A000AE002010C51000A06E110C20AF25AECF8
:103F7A0006F0010E0C6F52EC04F0000E011802E17B
:103F8A00010E001804E00B51010A01E004D00F0EE3
:103F9A002E6F000E2F6F080E0B6E9D0E0C6E050E07
:103FAA000D6E0D2EFED70C2EFCD70B2EFAD7000065
:103FBA000000FED1020E04010F6F050E106F020EF3
:103FCA00116F66EC00F0040E096F050E286FA7EC5E
:103FDA0000F021EC06F052EC04F0000E011802E1A8
:103FEA00010E001807E10F0E2E6F000E2F6F0E6BD9
:103FFA00010E306F3051000A2FE10C51010A03E122
:10400A005AEC06F019D0830E0401076F0F0E086FE1
:10401A00020E096FC80E0A6F010E0B6F84EC05F0D1
:10402A0000520AE002010C51000A06E110C20AF22B
:10403A005AEC06F0010E0C6F52EC04F0000E011857
:10404A0002E1010E001804E00B51010A01E004D05C
:10405A000F0E2E6F000E2F6F080E0B6E9D0E0C6E3C
:10406A00050E0D6E0D2EFED70C2EFCD70B2EFAD791
:10407A00000000009DD1020E04010F6F040E106FA4
:10408A00020E116F66EC00F0030E096F040E286F22
:10409A00A7EC00F021EC06F052EC04F0000E011837
:1040AA0002E1010E001807E10F0E2E6F000E2F6FAE
:1040BA000E6B010E306F3051000A2FE10C51010ACC
:1040CA0003E15AEC06F019D0830E0401076F0F0EB4
:1040DA00086F020E096FC80E0A6F010E0B6F84EC8F
:1040EA0005F000520AE002010C51000A06E110C272
:1040FA000AF25AEC06F0010E0C6F52EC04F0000EB4
:10410A00011802E1010E001804E00B51010A01E056
:10411A0004D00F0E2E6F000E2F6F080E0B6E9D0E21
:10412A000C6E050E0D6E0D2EFED70C2EFCD70B2E27
:10413A00FAD7000000003CD1020E04010F6F030EF3
:10414A00106F020E116F66EC00F0020E096F030E7B
:10415A00286F020E0D6FA7EC00F021EC06F052EC6E
:10416A0004F0000E011802E1010E001807E10F0E1B
:10417A002E6F000E2F6F0E6B010E306F3051000A3A
:10418A002FE10C51010A03E15AEC06F019D0830E13
:10419A000401076F0F0E086F020E096FC80E0A6F2F
:1041AA00010E0B6F84EC05F000520AE002010C517B
:1041BA00000A06E110C20AF25AEC06F0010E0C6F70
:1041CA0052EC04F0000E011802E1010E001804E09E
:1041DA000B51010A01E004D00F0E2E6F000E2F6F53
:1041EA00080E0B6E9D0E0C6E050E0D6E0D2EFED773
:1041FA000C2EFCD70B2EFAD700000000D9D0020EE5
:10420A0004010F6F020E106F020E116F66EC00F0C0
:10421A00010E0F6F020E286F010E0D6FA7EC00F052
:10422A0021EC06F052EC04F0000E011802E1010E36
:10423A00001807E10F0E2E6F000E2F6F0E6B010E86
:10424A00306F3051000A35E10C51010A03E15AEC92
:10425A0006F019D0830E0401076F0F0E086F020EC5
:10426A00096FC80E0A6F010E0B6F84EC05F000523D
:10427A000AE002010C51000A06E110C20AF25AECE5
:10428A0006F0010E0C6F52EC04F0000E011802E168
:10429A00010E001804E00B51010A01E005D00F0ECF
:1042AA002E6F000E2F6F05D00D51010A02E1BDECF1
:1042BA0006F0080E0B6E9D0E0C6E050E0D6E0D2E81
:1042CA00FED70C2EFCD70B2EFAD70000000070D0B8
:1042DA00000E02012F1902E1010E2E19D8B4CFEFF8
:1042EA001BF0000E2F1902E1020E2E19D8B411EF9D
:1042FA001CF0000E2F1902E1030E2E19D8B473EF29
:10430A001CF0000E2F1902E1040E2E19D8B4D5EFB5
:10431A001CF0000E2F1902E1050E2E19D8B437EF42
:10432A001DF0000E2F1902E1060E2E19D8B499EFCE
:10433A001DF0000E2F1902E1070E2E19D8B455D41C
:10434A00000E2F1902E1080E2E19D8B4AFD4000EB0
:10435A002F1902E1090E2E19D8B409D5000E2F190A
:10436A0002E10A0E2E19D8B463D5000E2F1902E104
:10437A000B0E2E19D8B4BDD5000E2F1902E10C0E62
:10438A002E19D8B417D6000E2F1902E10D0E2E19C8
:10439A00D8B471D6000E2F1902E10E0E2E19D8B418
:1043AA00CBD6000E2F1902E10F0E2E19D8B427D73B
:1043BA0002012E4B2F2BB9EF1BF0020E116F0C6B63
:1043CA00286B0A6B0F6B096B086B216B0B6B306BDD
:0643DA000E6B1F6B1200C8
:1043E00002012E6B2F6B306B800E2F19006E800E2A
:1043F000005C02E1100E2E5DD8B01FEF28F0010E18
:10440000206F010E0401126F24EC00F0A7EC00F005
:10441000AAEF27F0010E04010F6F100E106F020EAD
:10442000116F66EC00F00F0E096F100E296FA7ECEC
:1044300000F0830E0401076F0F0E086F020E096F64
:10444000C80E0A6F010E0B6F84EC05F0005206E0F7
:1044500010C20AF25AEC06F0010E0C6F52EC04F096
:10446000000E011802E1010E001804E00B51010AD0
:1044700001E004D00F0E2E6F000E2F6F040E0B6E96
:10448000CF0E0C6E010E0D6E0D2EFED70C2EFCD72E
:104490000B2EFAD7000000001AEF28F0010E0401DD
:1044A0000F6F0F0E106F020E116F66EC00F00E0E04
:1044B000096F0F0E296FA7EC00F021EC06F052EC0B
:1044C00004F0000E011802E1010E001807E10F0EC2
:1044D0002E6F000E2F6F206B010E306F3051000ACF
:1044E00031E152EC04F00C51010A03E15AEC06F000
:1044F00019D0830E0401076F0F0E086F020E096FAB
:10450000C80E0A6F010E0B6F84EC05F000520AE032
:1045100002010C51000A06E110C20AF25AEC06F040
:10452000010E0C6F52EC04F0000E011802E1010EB6
:10453000001804E00B51010A01E004D00F0E2E6FA9
:10454000000E2F6F040E0B6ECF0E0C6E010E0D6E53
:104550000D2EFED70C2EFCD70B2EFAD70000000034
:104560001AEF28F0010E04010F6F0E0E106F020EED
:10457000116F66EC00F00D0E096F0E0E296FA7EC9F
:1045800000F021EC06F052EC04F0000E011802E1FC
:10459000010E001807E10F0E2E6F000E2F6F206B1B
:1045A000010E306F3051000A2FE10C51010A03E176
:1045B0005AEC06F019D0830E0401076F0F0E086F36
:1045C000020E096FC80E0A6F010E0B6F84EC05F026
:1045D00000520AE002010C51000A06E110C20AF280
:1045E0005AEC06F0010E0C6F52EC04F0000E0118AC
:1045F00002E1010E001804E00B51010A01E004D0B1
:104600000F0E2E6F000E2F6F040E0B6ECF0E0C6E62
:10461000010E0D6E0D2EFED70C2EFCD70B2EFAD7E9
:10462000000000001AEF28F0010E04010F6F0D0EBC
:10463000106F020E116F66EC00F00C0E096F0D0E7C
:10464000296FA7EC00F021EC06F052EC04F0000E0C
:10465000011802E1010E001807E10F0E2E6F000E87
:104660002F6F206B010E306F3051000A2FE10C517B
:10467000010A03E15AEC06F019D0830E0401076F1A
:104680000F0E086F020E096FC80E0A6F010E0B6F36
:1046900084EC05F000520AE002010C51000A06E128
:1046A00010C20AF25AEC06F0010E0C6F52EC04F044
:1046B000000E011802E1010E001804E00B51010A7E
:1046C00001E004D00F0E2E6F000E2F6F040E0B6E44
:1046D000CF0E0C6E010E0D6E0D2EFED70C2EFCD7DC
:1046E0000B2EFAD7000000001AEF28F0010E04018B
:1046F0000F6F0C0E106F020E116F66EC00F00B0EB8
:10470000096F0C0E296FA7EC00F021EC06F052ECBB
:1047100004F0000E011802E1010E001807E10F0E6F
:104720002E6F000E2F6F206B010E306F3051000A7C
:104730002FE10C51010A03E15AEC06F019D0830E67
:104740000401076F0F0E086F020E096FC80E0A6F83
:10475000010E0B6F84EC05F000520AE002010C51CF
:10476000000A06E110C20AF25AEC06F0010E0C6FC4
:1047700052EC04F0000E011802E1010E001804E0F2
:104780000B51010A01E004D00F0E2E6F000E2F6FA7
:10479000080E0B6E9D0E0C6E050E0D6E0D2EFED7C7
:1047A0000C2EFCD70B2EFAD7000000001AEF28F0D1
:1047B000010E04010F6F0B0E106F020E116F66ECED
:1047C00000F00A0E096F0B0E296FA7EC00F021EC28
:1047D00006F052EC04F0000E011802E1010E001880
:1047E00007E10F0E2E6F000E2F6F206B010E306F42
:1047F0003051000A2FE10C51010A03E15AEC06F096
:1048000019D0830E0401076F0F0E086F020E096F97
:10481000C80E0A6F010E0B6F84EC05F000520AE01F
:1048200002010C51000A06E110C20AF25AEC06F02D
:10483000010E0C6F52EC04F0000E011802E1010EA3
:10484000001804E00B51010A01E004D00F0E2E6F96
:10485000000E2F6F040E0B6ECF0E0C6E010E0D6E40
:104860000D2EFED70C2EFCD70B2EFAD70000000021
:10487000E1D3010E04010F6F0A0E106F020E116FCB
:1048800066EC00F0090E096F0A0E296FA7EC00F024
:1048900021EC06F052EC04F0000E011802E1010ECA
:1048A000001807E10F0E2E6F000E2F6F206B010E08
:1048B000306F3051000A2FE10C51010A03E15AEC2C
:1048C00006F019D0830E0401076F0F0E086F020E59
:1048D000096FC80E0A6F010E0B6F84EC05F00052D1
:1048E0000AE002010C51000A06E110C20AF25AEC79
:1048F00006F0010E0C6F52EC04F0000E011802E1FC
:10490000010E001804E00B51010A01E004D00F0E63
:104910002E6F000E2F6F040E0B6ECF0E0C6E010E5D
:104920000D6E0D2EFED70C2EFCD70B2EFAD70000E5
:10493000000080D3010E04010F6F090E106F020EEC
:10494000116F66EC00F0080E096F090E296FA7ECD5
:1049500000F021EC06F052EC04F0000E011802E128
:10496000010E001807E10F0E2E6F000E2F6F206B47
:10497000010E306F3051000A2FE10C51010A03E1A2
:104980005AEC06F019D0830E0401076F0F0E086F62
:10499000020E096FC80E0A6F010E0B6F84EC05F052
:1049A00000520AE002010C51000A06E110C20AF2AC
:1049B0005AEC06F0010E0C6F52EC04F0000E0118D8
:1049C00002E1010E001804E00B51010A01E004D0DD
:1049D0000F0E2E6F000E2F6F040E0B6ECF0E0C6E8F
:1049E000010E0D6E0D2EFED70C2EFCD70B2EFAD716
:1049F000000000001FD3010E04010F6F080E106F9E
:104A0000020E116F66EC00F0070E096F080E296F99
:104A1000A7EC00F021EC06F052EC04F0000E0118B7
:104A200002E1010E001807E10F0E2E6F000E2F6F2E
:104A3000206B010E306F3051000A2FE10C51010A3A
:104A400003E15AEC06F019D0830E0401076F0F0E34
:104A5000086F020E096FC80E0A6F010E0B6F84EC0F
:104A600005F000520AE002010C51000A06E110C2F2
:104A70000AF25AEC06F0010E0C6F52EC04F0000E34
:104A8000011802E1010E001804E00B51010A01E0D7
:104A900004D00F0E2E6F000E2F6F040E0B6ECF0E74
:104AA0000C6E010E0D6E0D2EFED70C2EFCD70B2EAC
:104AB000FAD700000000BED2010E04010F6F070EEE
:104AC000106F020E116F66EC00F0060E096F070EF4
:104AD000296FA7EC00F021EC06F052EC04F0000E78
:104AE000011802E1010E001807E10F0E2E6F000EF3
:104AF0002F6F206B010E306F3051000A2FE10C51E7
:104B0000010A03E15AEC06F019D0830E0401076F85
:104B10000F0E086F020E096FC80E0A6F010E0B6FA1
:104B200084EC05F000520AE002010C51000A06E193
:104B300010C20AF25AEC06F0010E0C6F52EC04F0AF
:104B4000000E011802E1010E001804E00B51010AE9
:104B500001E004D00F0E2E6F000E2F6F040E0B6EAF
:104B6000CF0E0C6E010E0D6E0D2EFED70C2EFCD747
:104B70000B2EFAD7000000005DD2010E04010F6F6A
:104B8000060E106F020E116F66EC00F0050E096F35
:104B9000060E296FA7EC00F021EC06F052EC04F0B1
:104BA000000E011802E1010E001807E10F0E2E6F32
:104BB000000E2F6F206B010E306F3051000A2FE175
:104BC0000C51010A03E15AEC06F019D0830E0401DE
:104BD000076F0F0E086F020E096FC80E0A6F010EE5
:104BE0000B6F84EC05F000520AE002010C51000A40
:104BF00006E110C20AF25AEC06F0010E0C6F52ECFC
:104C000004F0000E011802E1010E001804E00B513F
:104C1000010A01E004D00F0E2E6F000E2F6F040E5C
:104C20000B6ECF0E0C6E010E0D6E0D2EFED70C2EE0
:104C3000FCD70B2EFAD700000000FCD1010E0401B6
:104C40000F6F050E106F020E116F66EC00F0040E70
:104C5000096F050E296FA7EC00F021EC06F052EC6D
:104C600004F0000E011802E1010E001807E10F0E1A
:104C70002E6F000E2F6F206B010E306F3051000A27
:104C80002FE10C51010A03E15AEC06F019D0830E12
:104C90000401076F0F0E086F020E096FC80E0A6F2E
:104CA000010E0B6F84EC05F000520AE002010C517A
:104CB000000A06E110C20AF25AEC06F0010E0C6F6F
:104CC00052EC04F0000E011802E1010E001804E09D
:104CD0000B51010A01E004D00F0E2E6F000E2F6F52
:104CE000040E0B6ECF0E0C6E010E0D6E0D2EFED748
:104CF0000C2EFCD70B2EFAD7000000009BD1010E22
:104D000004010F6F040E106F020E116F66EC00F0BD
:104D1000030E096F040E296FA7EC00F021EC06F0DA
:104D200052EC04F0000E011802E1010E001807E138
:104D30000F0E2E6F000E2F6F206B010E306F305153
:104D4000000A2FE10C51010A03E15AEC06F019D0D8
:104D5000830E0401076F0F0E086F020E096FC80E55
:104D60000A6F010E0B6F84EC05F000520AE002019D
:104D70000C51000A06E110C20AF25AEC06F0010ECC
:104D80000C6F52EC04F0000E011802E1010E001845
:104D900004E00B51010A01E004D00F0E2E6F000E4B
:104DA0002F6F040E0B6ECF0E0C6E010E0D6E0D2EBE
:104DB000FED70C2EFCD70B2EFAD7000000003AD1FC
:104DC000010E04010F6F030E106F020E116F66ECDF
:104DD00000F0020E096F030E296FA7EC00F021EC22
:104DE00006F052EC04F0000E011802E1010E00186A
:104DF00007E10F0E2E6F000E2F6F206B010E306F2C
:104E00003051000A2FE10C51010A03E15AEC06F07F
:104E100019D0830E0401076F0F0E086F020E096F81
:104E2000C80E0A6F010E0B6F84EC05F000520AE009
:104E300002010C51000A06E110C20AF25AEC06F017
:104E4000010E0C6F52EC04F0000E011802E1010E8D
:104E5000001804E00B51010A01E004D00F0E2E6F80
:104E6000000E2F6F040E0B6ECF0E0C6E010E0D6E2A
:104E70000D2EFED70C2EFCD70B2EFAD7000000000B
:104E8000D9D0010E04010F6F020E106F020E116FC8
:104E900066EC00F0010E096F020E296F010E0D6F16
:104EA000A7EC00F021EC06F052EC04F0000E011823
:104EB00002E1010E001807E10F0E2E6F000E2F6F9A
:104EC000206B010E306F3051000A35E10C51010AA0
:104ED00003E15AEC06F019D0830E0401076F0F0EA0
:104EE000086F020E096FC80E0A6F010E0B6F84EC7B
:104EF00005F000520AE002010C51000A06E110C25E
:104F00000AF25AEC06F0010E0C6F52EC04F0000E9F
:104F1000011802E1010E001804E00B51010A01E042
:104F200005D00F0E2E6F000E2F6F05D00D51010A08
:104F300002E1BDEC06F0040E0B6ECF0E0C6E010EFE
:104F40000D6E0D2EFED70C2EFCD70B2EFAD70000BF
:104F5000000070D0000E02012F1902E1010E2E197F
:104F6000D8B40AEF22F0000E2F1902E1020E2E191A
:104F7000D8B44EEF22F0000E2F1902E1030E2E19C5
:104F8000D8B4B2EF22F0000E2F1902E1040E2E1950
:104F9000D8B414EF23F0000E2F1902E1050E2E19DC
:104FA000D8B476EF23F0000E2F1902E1060E2E1969
:104FB000D8B4D8EF23F0000E2F1902E1070E2E19F6
:104FC000D8B457D4000E2F1902E1080E2E19D8B408
:104FD000B1D4000E2F1902E1090E2E19D8B40BD549
:104FE000000E2F1902E10A0E2E19D8B465D5000E55
:104FF0002F1902E10B0E2E19D8B4BFD5000E2F19B0
:1050000002E10C0E2E19D8B419D6000E2F1902E1A8
:105010000D0E2E19D8B473D6000E2F1902E10E0E04
:105020002E19D8B4CDD6000E2F1902E10F0E2E196D
:10503000D8B427D702012E4B2F2BF4EF21F0020E0C
:10504000116F0F6B096B086B216B0A6B0C6B296B73
:0A5050000B6B306B206B1F6B12001E
:10505A0002012E6B2F6B306B800E2F19006E800EA3
:10506A00005C02E1100E2E5DD8B050EF2EF0020E59
:10507A000E6F010E0401126F24EC00F0A7EC00F091
:10508A00DCEF2DF0020E04010F6F100E106F060EEA
:10509A00116F66EC00F00F0E086F100E286F830E6A
:1050AA000401076F0F0E086F020E096FC80E0A6F10
:1050BA00010E0B6F84EC05F0005206E010C20AF2F2
:1050CA005AEC06F0010E0C6F52EC04F0000E0118B7
:1050DA0002E1010E001804E00B51010A01E004D0BC
:1050EA000F0E2E6F000E2F6F060E0B6E130E0C6E28
:1050FA00AD0E0D6E0D2EFED70C2EFCD70B2EFAD749
:10510A00000000004BEF2EF0020E04010F6F0F0E8D
:10511A00106F060E116F66EC00F00E0E086F0F0E80
:10512A00286FA7EC00F021EC06F052EC04F0000E18
:10513A00011802E1010E001807E10F0E2E6F000E92
:10514A002F6F0E6B010E306F3051000A2FE10C5198
:10515A00010A03E15AEC06F019D0830E0401076F25
:10516A000F0E086F020E096FC80E0A6F010E0B6F41
:10517A0084EC05F000520AE002010C51000A06E133
:10518A0010C20AF25AEC06F0010E0C6F52EC04F04F
:10519A00000E011802E1010E001804E00B51010A89
:1051AA0001E004D00F0E2E6F000E2F6F060E0B6E4D
:1051BA00130E0C6EAD0E0D6E0D2EFED70C2EFCD7F7
:1051CA000B2EFAD7000000004BEF2EF0020E04015E
:1051DA000F6F0E0E106F060E116F66EC00F00D0EBB
:1051EA00086F0E0E286FA7EC00F021EC06F052ECC7
:1051FA0004F0000E011802E1010E001807E10F0E7B
:10520A002E6F000E2F6F0E6B010E306F3051000A99
:10521A002FE10C51010A03E15AEC06F019D0830E72
:10522A000401076F0F0E086F020E096FC80E0A6F8E
:10523A00010E0B6F84EC05F000520AE002010C51DA
:10524A00000A06E110C20AF25AEC06F0010E0C6FCF
:10525A0052EC04F0000E011802E1010E001804E0FD
:10526A000B51010A01E004D00F0E2E6F000E2F6FB2
:10527A00060E0B6E130E0C6EAD0E0D6E0D2EFED7B6
:10528A000C2EFCD70B2EFAD7000000004BEF2EF0A5
:10529A00020E04010F6F0D0E106F060E116F66ECF1
:1052AA0000F00C0E086F0D0E286FA7EC00F021EC31
:1052BA0006F052EC04F0000E011802E1010E00188B
:1052CA0007E10F0E2E6F000E2F6F0E6B010E306F5F
:1052DA003051000A2FE10C51010A03E15AEC06F0A1
:1052EA0019D0830E0401076F0F0E086F020E096FA3
:1052FA00C80E0A6F010E0B6F84EC05F000520AE02B
:10530A0002010C51000A06E110C20AF25AEC06F038
:10531A00010E0C6F52EC04F0000E011802E1010EAE
:10532A00001804E00B51010A01E004D00F0E2E6FA1
:10533A00000E2F6F060E0B6E130E0C6EAD0E0D6E59
:10534A000D2EFED70C2EFCD70B2EFAD7000000002C
:10535A004BEF2EF0020E04010F6F0C0E106F060EAB
:10536A00116F66EC00F00B0E086F0C0E286FA7EC9D
:10537A0000F021EC06F052EC04F0000E011802E1F4
:10538A00010E001807E10F0E2E6F000E2F6F0E6B25
:10539A00010E306F3051000A2FE10C51010A03E16E
:1053AA005AEC06F019D0830E0401076F0F0E086F2E
:1053BA00020E096FC80E0A6F010E0B6F84EC05F01E
:1053CA0000520AE002010C51000A06E110C20AF278
:1053DA005AEC06F0010E0C6F52EC04F0000E0118A4
:1053EA0002E1010E001804E00B51010A01E004D0A9
:1053FA000F0E2E6F000E2F6F060E0B6E130E0C6E15
:10540A00AD0E0D6E0D2EFED70C2EFCD70B2EFAD735
:10541A00000000004BEF2EF0020E04010F6F0B0E7E
:10542A00106F060E116F66EC00F00A0E086F0B0E75
:10543A00286FA7EC00F021EC06F052EC04F0000E05
:10544A00011802E1010E001807E10F0E2E6F000E7F
:10545A002F6F0E6B010E306F3051000A2FE10C5185
:10546A00010A03E15AEC06F019D0830E0401076F12
:10547A000F0E086F020E096FC80E0A6F010E0B6F2E
:10548A0084EC05F000520AE002010C51000A06E120
:10549A0010C20AF25AEC06F0010E0C6F52EC04F03C
:1054AA00000E011802E1010E001804E00B51010A76
:1054BA0001E004D00F0E2E6F000E2F6F060E0B6E3A
:1054CA00130E0C6EAD0E0D6E0D2EFED70C2EFCD7E4
:1054DA000B2EFAD700000000D9D3090E086F0A0E66
:1054EA00286FA7EC00F021EC06F052EC04F0000E55
:1054FA00011802E1010E001807E10F0E2E6F000ECF
:10550A002F6F0E6B010E306F3051000A2FE10C51D4
:10551A00010A03E15AEC06F019D0830E0401076F61
:10552A000F0E086F020E096FC80E0A6F010E0B6F7D
:10553A0084EC05F000520AE002010C51000A06E16F
:10554A0010C20AF25AEC06F0010E0C6F52EC04F08B
:10555A00000E011802E1010E001804E00B51010AC5
:10556A0001E004D00F0E2E6F000E2F6F060E0B6E89
:10557A00130E0C6EAD0E0D6E0D2EFED70C2EFCD733
:10558A000B2EFAD70000000081D3020E04010F6F20
:10559A00090E106F060E116F66EC00F0080E086F08
:1055AA00090E286FA7EC00F021EC06F052EC04F08B
:1055BA00000E011802E1010E001807E10F0E2E6F0E
:1055CA00000E2F6F0E6B010E306F3051000A2FE163
:1055DA000C51010A03E15AEC06F019D0830E0401BA
:1055EA00076F0F0E086F020E096FC80E0A6F010EC1
:1055FA000B6F84EC05F000520AE002010C51000A1C
:10560A0006E110C20AF25AEC06F0010E0C6F52ECD7
:10561A0004F0000E011802E1010E001804E00B511B
:10562A00010A01E004D00F0E2E6F000E2F6F060E36
:10563A000B6E130E0C6EAD0E0D6E0D2EFED70C2ECC
:10564A00FCD70B2EFAD70000000020D3020E04016B
:10565A000F6F080E106F060E116F66EC00F0070E42
:10566A00086F080E286FA7EC00F021EC06F052EC48
:10567A0004F0000E011802E1010E001807E10F0EF6
:10568A002E6F000E2F6F0E6B010E306F3051000A15
:10569A002FE10C51010A03E15AEC06F019D0830EEE
:1056AA000401076F0F0E086F020E096FC80E0A6F0A
:1056BA00010E0B6F84EC05F000520AE002010C5156
:1056CA00000A06E110C20AF25AEC06F0010E0C6F4B
:1056DA0052EC04F0000E011802E1010E001804E079
:1056EA000B51010A01E004D00F0E2E6F000E2F6F2E
:1056FA00060E0B6E130E0C6EAD0E0D6E0D2EFED732
:10570A000C2EFCD70B2EFAD700000000BFD2020ED7
:10571A0004010F6F070E106F060E116F66EC00F092
:10572A00060E086F070E286FA7EC00F021EC06F0B2
:10573A0052EC04F0000E011802E1010E001807E114
:10574A000F0E2E6F000E2F6F0E6B010E306F305141
:10575A00000A2FE10C51010A03E15AEC06F019D0B4
:10576A00830E0401076F0F0E086F020E096FC80E31
:10577A000A6F010E0B6F84EC05F000520AE0020179
:10578A000C51000A06E110C20AF25AEC06F0010EA8
:10579A000C6F52EC04F0000E011802E1010E001821
:1057AA0004E00B51010A01E004D00F0E2E6F000E27
:1057BA002F6F060E0B6E130E0C6EAD0E0D6E0D2EA8
:1057CA00FED70C2EFCD70B2EFAD7000000005ED2B3
:1057DA00020E04010F6F060E106F060E116F66ECB3
:1057EA0000F0050E086F060E286FA7EC00F021ECFA
:1057FA0006F052EC04F0000E011802E1010E001846
:10580A0007E10F0E2E6F000E2F6F0E6B010E306F19
:10581A003051000A2FE10C51010A03E15AEC06F05B
:10582A0019D0830E0401076F0F0E086F020E096F5D
:10583A00C80E0A6F010E0B6F84EC05F000520AE0E5
:10584A0002010C51000A06E110C20AF25AEC06F0F3
:10585A00010E0C6F52EC04F0000E011802E1010E69
:10586A00001804E00B51010A01E004D00F0E2E6F5C
:10587A00000E2F6F060E0B6E130E0C6EAD0E0D6E14
:10588A000D2EFED70C2EFCD70B2EFAD700000000E7
:10589A00FDD1020E04010F6F050E106F060E116F77
:1058AA0066EC00F0040E086F050E286FA7EC00F0F6
:1058BA0021EC06F052EC04F0000E011802E1010E90
:1058CA00001807E10F0E2E6F000E2F6F0E6B010EE0
:1058DA00306F3051000A2FE10C51010A03E15AECF2
:1058EA0006F019D0830E0401076F0F0E086F020E1F
:1058FA00096FC80E0A6F010E0B6F84EC05F0005297
:10590A000AE002010C51000A06E110C20AF25AEC3E
:10591A0006F0010E0C6F52EC04F0000E011802E1C1
:10592A00010E001804E00B51010A01E004D00F0E29
:10593A002E6F000E2F6F060E0B6E130E0C6EAD0E31
:10594A000D6E0D2EFED70C2EFCD70B2EFAD70000AB
:10595A0000009CD1020E04010F6F040E106F060E98
:10596A00116F66EC00F0030E086F040E286FA7ECA7
:10597A0000F021EC06F052EC04F0000E011802E1EE
:10598A00010E001807E10F0E2E6F000E2F6F0E6B1F
:10599A00010E306F3051000A2FE10C51010A03E168
:1059AA005AEC06F019D0830E0401076F0F0E086F28
:1059BA00020E096FC80E0A6F010E0B6F84EC05F018
:1059CA0000520AE002010C51000A06E110C20AF272
:1059DA005AEC06F0010E0C6F52EC04F0000E01189E
:1059EA0002E1010E001804E00B51010A01E004D0A3
:1059FA000F0E2E6F000E2F6F060E0B6E130E0C6E0F
:105A0A00AD0E0D6E0D2EFED70C2EFCD70B2EFAD72F
:105A1A00000000003BD1020E04010F6F030E106F4D
:105A2A00060E116F66EC00F0020E086F030E286F67
:105A3A00020E0D6FA7EC00F021EC06F052EC04F018
:105A4A00000E011802E1010E001807E10F0E2E6F79
:105A5A00000E2F6F0E6B010E306F3051000A2FE1CE
:105A6A000C51010A03E15AEC06F019D0830E040125
:105A7A00076F0F0E086F020E096FC80E0A6F010E2C
:105A8A000B6F84EC05F000520AE002010C51000A87
