:100000005CEF2DF00000000000EF00F000000000A9
:0A0010000000000000000000F3D71C
:10001C00240E0C6EB50E0D6E0D2EFED70C2EFCD7CD
:06002C00000000001200BC
:0A003200530E0D6E0D2EFED71200C6
:0C003C00000000000000000000001200A6
:100048000301D3BF02D08B9601D08B86D3BD02D0DB
:100058008B9401D08B84D3BB02D08B9201D08B823E
:10006800D3B902D08B9001D08B800101E8B102D0C6
:100078008B8A01D08B9A8B8EDDDF8B9E0301D3B7E1
:1000880002D08B9601D08B86D3B502D08B9401D049
:100098008B84D3B302D08B9201D08B82D3B102D0A0
:1000A8008B9001D08B800101E8B102D08B8A01D0FE
:1000B8008B9A8B8EBFDF8B9EE8A102D0ABDF01D07D
:0400C800B4DF12008F
:1000CC0010D0800E0301D06F1AD0C00ED06F17D095
:1000DC00940ED06F14D0D40ED06F11D0800ED06F80
:1000EC000ED00301D051010AECE0D051020AEDE030
:1000FC00D051030AEDE0D051040AEDE0EFD7D10561
:10010C00006ED051002600C0D0F30101E88100C080
:10011C00D3F394DFE891D2C3D3F390DFE8811200DC
:10012C00040E0C6E3A0E0D6E0D2EFED70C2EFCD757
:04013C0000001200AD
:1001400010D0010E0301D06F010ED16FD26BBEDF54
:100150000FD0020E0301D06F010ED16FD26BB6DF4C
:1001600007D00101DF51010AECE0DF51020AF1E0A2
:0201700012007B
:0E0172000101E891CFC3D3F366DFE8811200EC
:100180000101D951EA192CE1DB51010A29E1DA51C7
:10019000010A26E1010E0301D36F56DFD1DF010E04
:1001A0000301D06FEAC1D1F3030ED26F8FDF080EC7
:1001B0000B6E9D0E0C6E050E0D6E0D2EFED70C2EC9
:1001C000FCD70B2EFAD700000000010E0301D36FFD
:1001D0003BDFB6DFD76B010E006E000E016E2FD035
:1001E000D951E9192CE1D851020A29E1DA51020A60
:1001F00026E1010E0301D36F27DFA2DF020E030108
:10020000D06FE9C1D1F3030ED26F60DF080E0B6E21
:100210009D0E0C6E050E0D6E0D2EFED70C2EFCD70E
:100220000B2EFAD700000000010E0301D36F0CDF84
:1002300087DFD76B010E006E000E016E00D012003A
:10024000C8C3E3F1C9C3E4F1000E0101E56FE66F35
:06025000010EE76F120031
:100256000101DB51010AD8A46AD1800E000A006EA2
:10026600800EDC19005CD8B0ADD07ED0010E030143
:10027600D06F0F0ED16F010ED26F25DFA2D0010E07
:100286000301D06F0E0ED16F010ED26F1CDF99D015
:10029600010E0301D06F0D0ED16F010ED26F13DF69
:1002A60090D0010E0301D06F0C0ED16F010ED26FEC
:1002B6000ADF87D0010E0301D06F0B0ED16F010E3E
:1002C600D26F01DF7ED0010E0301D06F0A0ED16F0F
:1002D600010ED26FF8DE75D0010E0301D06F090E44
:1002E600D16F010ED26FEFDE6CD0010E0301D06F1D
:1002F600080ED16F010ED26FE6DE63D0010E030148
:10030600D06F070ED16F010ED26FDDDE5AD0010E0F
:100316000301D06F060ED16F010ED26FD4DE51D01D
:10032600010E0301D06F050ED16F010ED26FCBDE29
:1003360048D0010E0301D06F040ED16F010ED26FAB
:10034600C2DE3FD0010E0301D06F030ED16F010E46
:10035600D26FB9DE36D0010E0301D06F020ED16F17
:10036600010ED26FB0DE2DD0DC510F0AD8B47ED785
:10037600DC510E0AD8B483D7DC510D0AD8B488D71D
:10038600DC510C0A8EE0DC510B0A94E0DC510A0ABF
:100396009AE0DC51090AA0E0DC51080AA6E0DC512B
:1003A600070AACE0DC51060AB2E0DC51050AB8E007
:1003B600DC51040ABEE0DC51030AC4E0DC51020A47
:1003C600CAE0B4D0800E000A006E800EE019005C10
:1003D600D8B0ACD07ED0010E0301D06F0F0ED16F16
:1003E600020ED26F70DEA2D0010E0301D06F0E0E88
:1003F600D16F020ED26F67DE99D0010E0301D06F66
:100406000D0ED16F020ED26F5EDE90D0010E03018B
:10041600D06F0C0ED16F020ED26F55DE87D0010E53
:100426000301D06F0B0ED16F020ED26F4CDE7ED061
:10043600010E0301D06F0A0ED16F020ED26F43DE9A
:1004460075D0010E0301D06F090ED16F020ED26F67
:100456003ADE6CD0010E0301D06F080ED16F020E8A
:10046600D26F31DE63D0010E0301D06F070ED16F5C
:10047600020ED26F28DE5AD0010E0301D06F060E8F
:10048600D16F020ED26F1FDE51D0010E0301D06F65
:10049600050ED16F020ED26F16DE48D0010E030193
:1004A600D06F040ED16F020ED26F0DDE3FD0010E5B
:1004B6000301D06F030ED16F020ED26F04DE36D069
:1004C600010E0301D06F020ED16F020ED26FFBDD5B
:1004D6002DD0E0510F0AD8B47ED7E0510E0AD8B419
:1004E60083D7E0510D0AD8B488D7E0510C0A8EE0C4
:1004F600E0510B0A94E0E0510A0A9AE0E051090A39
:10050600A0E0E051080AA6E0E051070AACE0E0519D
:10051600060AB2E0E051050AB8E0E051040ABEE07E
:10052600E051030AC4E0E051020ACAE027D2D851DA
:10053600020AD8A423D2800E000A006E800EDC19AF
:10054600005CD8B0ADD07ED0020E0301D06F0F0E86
:10055600D16F010ED26FB7DDA2D0020E0301D06FAC
:100566000E0ED16F010ED26FAEDD99D0020E0301D1
:10057600D06F0D0ED16F010ED26FA5DD90D0020E99
:100586000301D06F0C0ED16F010ED26F9CDD87D0A8
:10059600020E0301D06F0B0ED16F010ED26F93DDE9
:1005A6007ED0020E0301D06F0A0ED16F010ED26FFC
:1005B6008ADD75D0020E0301D06F090ED16F010ED0
:1005C600D26F81DD6CD0020E0301D06F080ED16FA1
:1005D600010ED26F78DD63D0020E0301D06F070ED5
:1005E600D16F010ED26F6FDD5AD0020E0301D06FAC
:1005F600060ED16F010ED26F66DD51D0020E0301D9
:10060600D06F050ED16F010ED26F5DDD48D0020EA0
:100616000301D06F040ED16F010ED26F54DD3FD0AF
:10062600020E0301D06F030ED16F010ED26F4BDDA8
:1006360036D0020E0301D06F020ED16F010ED26FBB
:1006460042DD2DD0DC510F0AD8B47ED7DC510E0A1C
:10065600D8B483D7DC510D0AD8B488D7DC510C0A3C
:100666008EE0DC510B0A94E0DC510A0A9AE0DC5178
:10067600090AA0E0DC51080AA6E0DC51070AACE052
:10068600DC51060AB2E0DC51050AB8E0DC51040A86
:10069600BEE0DC51030AC4E0DC51020ACAE06ED1B6
:1006A600800E000A006E800EE019005CD8B0ADD056
:1006B6007ED0020E0301D06F0F0ED16F020ED26FE5
:1006C60002DDA2D0020E0301D06F0E0ED16F020E14
:1006D600D26FF9DC99D0020E0301D06F0D0ED16FE7
:1006E600020ED26FF0DC90D0020E0301D06F0C0E1A
:1006F600D16F020ED26FE7DC87D0020E0301D06FF6
:100706000B0ED16F020ED26FDEDC7ED0020E03011D
:10071600D06F0A0ED16F020ED26FD5DC75D0020EE5
:100726000301D06F090ED16F020ED26FCCDC6CD0F4
:10073600020E0301D06F080ED16F020ED26FC3DC1A
:1007460063D0020E0301D06F070ED16F020ED26F77
:10075600BADC5AD0020E0301D06F060ED16F020E1C
:10076600D26FB1DC51D0020E0301D06F050ED16FEE
:10077600020ED26FA8DC48D0020E0301D06F040E21
:10078600D16F020ED26F9FDC3FD0020E0301D06FF5
:10079600030ED16F020ED26F96DC36D0020E030125
:1007A600D06F020ED16F020ED26F8DDC2DD0E051CC
:1007B6000F0AD8B47ED7E0510E0AD8B483D7E051D9
:1007C6000D0AD8B488D7E0510C0A8EE0E0510B0A26
:1007D60094E0E0510A0A9AE0E051090AA0E0E051EB
:1007E600080AA6E0E051070AACE0E051060AB2E0CA
:1007F600E051050AB8E0E051040ABEE0E051030A00
:10080600C4E0E051020ACAE0B9D0800E000A006EC8
:10081600800EE119005CD8B0B1D083D0020E03017E
:10082600D06F0F0ED16F060ED26F4DDCA7D0020E21
:100836000301D06F0E0ED16F060ED26F44DC9ED030
:10084600020E0301D06F0D0ED16F060ED26F3BDC88
:1008560095D0020E0301D06F0C0ED16F060ED26F2B
:1008660032DC8CD0020E0301D06F0B0ED16F060E58
:10087600D26F29DC83D0020E0301D06F0A0ED16F2E
:10088600060ED26F20DC7AD0020E0301D06F090E5D
:10089600D16F060ED26F17DC71D0020E0301D06F36
:1008A600080ED16F060ED26F0EDC68D0020E030161
:1008B600D06F070ED16F060ED26F05DC5FD0020E29
:1008C6000301D06F060ED16F060ED26F66EC00F0F4
:1008D60055D0020E0301D06F050ED16F060ED26FF2
:1008E60066EC00F04BD0020E0301D06F040ED16F00
:1008F600060ED26F66EC00F041D0020E0301D06FF7
:10090600030ED16F060ED26F66EC00F037D0020EE2
:100916000301D06F020ED16F060ED26F66EC00F0A7
:100926002DD0E1510F0AD8B479D7E1510E0AD8B4C7
:100936007ED7E1510D0AD8B483D7E1510C0A89E07C
:10094600E1510B0A8FE0E1510A0A95E0E151090AEB
:100956009BE0E151080AA1E0E151070AA7E0E15155
:10096600060AADE0E151050AB4E0E151040ABBE034
:0E097600E151030AC2E0E151020AC9E0120099
:10098400220E0C6E086A096A0A6A0B6A0C06D8B44D
:100994001FD0D8900B320A320932083203320232A5
:1009A40001320032D8A0F2D70C06D8B409D00450D2
:1009B40008260550092206500A2207500B22EAD7BE
:1009C400045008260550092206500A2207500B221B
:0209D40012000F
:1009D6000134083609360450085E0550D8A0053C97
:1009E600095E003601360F0E0C6E013408360936E4
:1009F600045000A006D0085E0550D8A0053C095E4C
:100A060005D008260550D8B0053C09260036013623
:100A16000C2EEBD700B006D0045008260550D8B0EF
:080A2600053C09260000120046
:100A2E0010D0800E0301C86F1AD0C00EC86F17D039
:100A3E00940EC86F14D0D40EC86F11D0800EC86F2C
:100A4E000ED00301C851010AECE0C851020AEDE0D4
:100A5E00C851030AEDE0C851040AEDE0EFD7C9050D
:100A6E00006EC851002600C0C8F300C0D3F324ECBA
:100A7E0000F0E8910301CC6BCC51CA25E96E000E53
:100A8E00CB21EA6EEE520DE0CC51CA25E96E000E76
:100A9E00CB21EA6EEECFCFF3B9EC00F00301CC2BF5
:080AAE00EBD70101E881120001
:100AB600016A026A036A000E035C09E201C0E1FFF3
:100AC60002C0E2FFE66A014A022A032AF4D7016A53
:100AD600026A036A800E006E800E010A005C02E163
:100AE600000E035C09E201C0E1FF02C0E2FFE66A14
:0A0AF600014A022A032AEED712007B
:100B00000301CE6BCAC301F0010E006E015004E078
:100B100000360090FF0FFBD700C0CDF3C8C3E9FF3C
:100B2000C9C3EAFF0050EE14016E0152010ED8A4B1
:100B3000000E006ECC51001A1AE0CB51000806E2FC
:100B400096EC00F096EC00F0CB07F7D7C8C3E9FFAE
:100B5000C9C3EAFFCD51EE14016E0152010ED8A4B3
:100B6000000E006ECC51001A02E0FF0ECE6FCEC315
:040B700000F012007F
:100B74000450000A08E10550000A05E1FF0E006E6A
:100B84007F0E016E57D00D6A096A086A0150001081
:100B9400D8B4000C015005180A6E0ABE0D1E0B6A6B
:100BA40005AE05D0041E051E042AD8B4052A01AEDC
:100BB40005D0001E011E002AD8B4012A01500510D8
:100BC4000A6E0ABE10D005DF0BB020D00DAE000CAB
:100BD400001E011E002AD8B4012A081E091E082A74
:100BE400D8B4092A000C05AE0DD001BE07D00150BF
:100BF400096E0050086E016A006AE8D7016A006A4B
:100C0400002A000C011E001E0B2ADDD7082AD8B4C6
:100C1400092A0450085CD8A4D9D70550095CD8A483
:100C2400D5D7096A086A002AD8B4012A01AECED7FA
:060C34000000FF0C12009D
:100C3A000301C76BC76B800EC719006E800E040ACA
:100C4A00005CD8B0D5D0010ED36F24EC00F0010EB1
:100C5A000301D06F060ED16F030ED26F66EC00F05F
:100C6A00010E0301D06F070ED16F030ED26F66EC2F
:100C7A0000F0010E0301D06F080ED16F030ED26F80
:100C8A0066EC00F0010E0301D06F090ED16F030E5E
:100C9A00D26F66EC00F0010E0301D06F0A0ED16F1D
:100CAA00030ED26F66EC00F0020E0301D06F060E3F
:100CBA00D16F030ED26F66EC00F0020E0301D06F03
:100CCA00070ED16F030ED26F66EC00F0020E03011D
:100CDA00D06F080ED16F030ED26F66EC00F0020ED1
:100CEA000301D06F090ED16F030ED26F66EC00F0CC
:100CFA00020E0301D06F0A0ED16F030ED26F66EC9B
:100D0A0000F00D0E0B6EAF0E0C6EB60E0D6E0D2EA4
:100D1A00FED70C2EFCD70B2EFAD70000010E0301CA
:100D2A00D06F060ED16F040ED26F66EC00F0010E82
:100D3A000301D06F070ED16F040ED26F66EC00F07C
:100D4A00010E0301D06F080ED16F040ED26F66EC4C
:100D5A0000F0010E0301D06F090ED16F040ED26F9D
:100D6A0066EC00F0010E0301D06F0A0ED16F040E7B
:100D7A00D26F66EC00F0020E0301D06F060ED16F3F
:100D8A00040ED26F66EC00F0020E0301D06F070E5C
:100D9A00D16F040ED26F66EC00F0020E0301D06F21
:100DAA00080ED16F040ED26F66EC00F0020E03013A
:100DBA00D06F090ED16F040ED26F66EC00F0020EEE
:100DCA000301D06F0A0ED16F040ED26F66EC00F0E9
:100DDA00120E0B6EC20E0C6E660E0D6E0D2EFED727
:100DEA000C2EFCD70B2EFAD700000301C72B23D7F2
:100DFA00010ED36F24EC00F0010E0301C86F030E3D
:100E0A00C96FB10ECA6F000ECB6F0CDE4D0E0B6EA2
:100E1A00190E0C6E4F0E0D6E0D2EFED70C2EFCD732
:100E2A000B2EFAD7000000000001BE51010A07E1AB
:100E3A00010EAD6F010E006E000E016E03D036DE9C
:060E4A00006A016A1200BB
:100E50000101E75307E1010E0301C86F000EC96FDE
:100E600020EC01F0E3C100F0E4C101F0E5C102F0C3
:100E7000E6C103F06D0E046E4E0E056EC60E066ED4
:100E8000410E076E7FDD390E0024056E300E012005
:100E9000066E000E0220076E000E0320086E07C0CB
:100EA00000F008C001F0000E08BEFF0E026E036ED7
:100EB000FF0E00167F0E0116000E0216031600C06C
:100EC000E3F101C0E4F102C0E5F103C0E6F1120074
:100ED0000101DA51010A2BE1010E0301D36F24EC69
:100EE00000F0A0EC00F02BEC01F0C0EC00F0000EE4
:100EF000011802E1010E00180DE1010EE26FDB6B3B
:100F0000010E0301D36F24EC00F0A0EC00F0DD6BC8
:100F1000D96B09D0010E0301D06FDEC1D1F3050EEC
:100F2000D26F66EC00F0DE2BDEC1D9F12DD0DA51A4
:100F3000020A2AE1010E0301D36F24EC00F0A0ECB9
:100F400000F02BEC01F0C0EC00F0000E011802E103
:100F5000010E00180DE1010EE26FD86B010E0301C6
:100F6000D36F24EC00F0A0EC00F0DD6BD96B09D05E
:100F7000020E0301D06FDEC1D1F3050ED26F66EC15
:0A0F800000F0DE2BDEC1D9F11200F3
:100F8A00010E0301D36F24EC00F0010E0301D06FB0
:100F9A00100ED16F030ED26F66EC00F0020E030141
:100FAA00D06F100ED16F030ED26F66EC00F00D0EEB
:100FBA000B6EAF0E0C6EB60E0D6E0D2EFED70C2EEE
:100FCA00FCD70B2EFAD70000010E0301D36F24ECD5
:100FDA0000F0010E0301D06F100ED16F040ED26F14
:100FEA0066EC00F0020E0301D06F100ED16F040EF2
:100FFA00D26F66EC00F00D0E0B6EAF0E0C6EB60ED5
:10100A000D6E0D2EFED70C2EFCD70B2EFAD7000034
:10101A00010E0301D36F24EC00F0010E0301D06F1F
:10102A00100ED16F030ED26F66EC00F0020E0301B0
:10103A00D06F100ED16F030ED26F66EC00F00D0E5A
:10104A000B6EAF0E0C6EB60E0D6E0D2EFED70C2E5D
:10105A00FCD70B2EFAD70000010E0301D36F24EC44
:10106A0000F0010E0301D06F100ED16F040ED26F83
:10107A0066EC00F0020E0301D06F100ED16F040E61
:10108A00D26F66EC00F00D0E0B6EAF0E0C6EB60E44
:10109A000D6E0D2EFED70C2EFCD70B2EFAD70000A4
:1010AA00010E0301D36F24EC00F0010E0301C86F97
:1010BA00010EC96FBF0ECA6F000ECB6FB3DC020EF2
:1010CA000301C86F020EC96FF90ECA6F000ECB6F0B
:1010DA00A9DC4D0E0B6E190E0C6E4F0E0D6E0D2EF9
:1010EA00FED70C2EFCD70B2EFAD700000000010EFB
:1010FA000301D36F24EC00F0010E0301C86F020E46
:10110A00C96F050ECA6F010ECB6F8CDC020E03018C
:10111A00C86F030EC96F140ECA6F010ECB6F82DC43
:10112A004D0E0B6E190E0C6E4F0E0D6E0D2EFED758
:10113A000C2EFCD70B2EFAD700000000010E03017B
:10114A00D36F24EC00F0010E0301C86F030EC96FC0
:10115A00CD0ECA6F000ECB6F65DC020E0301C86F9D
:10116A00020EC96FD90ECA6F000ECB6F5BDC4D0E33
:10117A000B6E190E0C6E4F0E0D6E0D2EFED70C2E29
:10118A00FCD70B2EFAD700000000010E0301D36F23
:10119A0024EC00F0010E0301C86F010EC96FE80EBE
:1011AA00CA6F000ECB6F3EDC020E0301C86F030E3E
:1011BA00C96F3B0ECA6F000ECB6F34DC4D0E0B6E3F
:1011CA00190E0C6E4F0E0D6E0D2EFED70C2EFCD77F
:1011DA000B2EFAD700000000010E0301D36F24EC96
:1011EA0000F0010E0301C86F020EC96F490ECA6FE3
:1011FA00000ECB6F17DC020E0301C86F020EC96F17
:10120A00580ECA6F000ECB6F0DDC4D0E0B6E190E09
:10121A000C6E4F0E0D6E0D2EFED70C2EFCD70B2E1C
:10122A00FAD700000000010E0301D36F24EC00F08E
:10123A00010E0301C86F020EC96F150ECA6F000EA8
:10124A00CB6F17EC05F0020E0301C86F020EC96FCF
:10125A00230ECA6F000ECB6F17EC05F04D0E0B6E06
:10126A00190E0C6E4F0E0D6E0D2EFED70C2EFCD7DE
:10127A000B2EFAD700000000010E0301D36F24ECF5
:10128A0000F0010E0301C86F040EC96F310ECA6F58
:10129A00000ECB6F17EC05F0020E0301C86F040EA7
:1012AA00C96F670ECA6F000ECB6F17EC05F04D0EB3
:1012BA000B6E190E0C6E4F0E0D6E0D2EFED70C2EE8
:1012CA00FCD70B2EFAD700000000010E0301D36FE2
:1012DA0024EC00F0010E0301C86F030EC96F880EDB
:1012EA00CA6F000ECB6F17EC05F0020E0301C86F30
:1012FA00020EC96F950ECA6F000ECB6F17EC05F080
:10130A00660E0B6E760E0C6EC10E0D6E0D2EFED78E
:10131A000C2EFCD70B2EFAD7010E0301D36F24EC47
:10132A0000F0010E0301C86F030EC96FA10ECA6F48
:10133A00000ECB6F17EC05F0020E0301C86F030E07
:10134A00C96F720ECA6F000ECB6F17EC05F0660EEE
:10135A000B6E760E0C6EC10E0D6E0D2EFED70C2E78
:08136A00FCD70B2EFAD712008C
:10137200830E0301C86F0F0EC96FCA6B320ECB6F9B
:10138200010ECC6F80EC05F000520FE0010E01015E
:10139200DF6F010E0001B06F010E0301D06F010E6D
:1013A200D16FD26B66EC00F01DD0830E0301C86FC3
:1013B2000F0EC96F010ECA6F320ECB6F010ECC6FCA
:1013C20080EC05F000520EE0020E0101DF6F020E0A
:1013D2000001B06F020E0301D06F010ED16FD26B0C
:0613E20066EC00F01200B1
:1013E800400E0301D36F24EC00F0EF6BEF510708B8
:1013F80012E3BC0EEF25F66E660EF76E000EF722AE
:10140800000EF86E000EF8220900F5CFCFF3B9EC04
:1014180000F0EF2BEBD7EF6BEF51070812E3B40E98
:10142800EF25F66E660EF76E000EF722000EF86EC8
:10143800000EF8220900F5CFCFF3B9EC00F0EF2B3E
:10144800EBD7EF6BEF51070812E3CC0EEF25F66EE2
:10145800660EF76E000EF722000EF86E000EF822E8
:101468000900F5CFCFF3B9EC00F0EF2BEBD7EF6B1A
:10147800EF51070812E3C40EEF25F66E660EF76EFD
:10148800000EF722000EF86E000EF8220900F5CFC4
:10149800CFF3B9EC00F0EF2BEBD7EF6BEF51070868
:1014A80012E3AC0EEF25F66E660EF76E000EF7220D
:1014B800000EF86E000EF8220900F5CFCFF3B9EC54
:1014C80000F0EF2BEBD7EF6BEF51070812E3940E08
:1014D800EF25F66E660EF76E000EF722000EF86E18
:1014E800000EF8220900F5CFCFF3B9EC00F0EF2B8E
:1014F800EBD7EF6BEF51070812E39C0EEF25F66E62
:10150800660EF76E000EF722000EF86E000EF82237
:101518000900F5CFCFF3B9EC00F0EF2BEBD7EF6B69
:10152800EF51070812E3A40EEF25F66E660EF76E6C
:10153800000EF722000EF86E000EF8220900F5CF13
:0C154800CFF3B9EC00F0EF2BEBD7120052
:10155400F3C1C8F3000E0301C96F20EC01F076DC7F
:10156400FF0E046E000E056EBAEC05F008C000F024
:1015740009C001F000C0EFF101C0F0F1800E0118C4
:10158400026E800E025C02E1000E005C0FE3800E2E
:101594000101F019006E800E005C02E1500EEF5D57
:1015A40005E2010EF16F000EF26F25D00101800EED
:1015B400F019006E800E005C02E1500EEF5D0EE348
:1015C400800EF019006E800E005C02E1A00EEF5D4B
:1015D40005E2020EF16F000EF26F0DD0800EF019CD
:1015E400006E800E005C02E1A00EEF5D04E3030ECA
:1015F400F16F000EF26FF1C100F0F2C101F01200C0
:10160400500E0101EF6F490EF06F430EF16F200E83
:10161400F26F490EF36F4E0EF46F560EF56F410ED6
:10162400F66F440EF76F450EF86F520EF96F530EB6
:10163400FA6FFB6B560EFC6F490EFD6F410EFE6F89
:10164400200EFF6F4C0E0201006F410E016F430E1E
:10165400026F540E036F410E046F056B4E0E066F3E
:10166400450E076F570E086F200E096F470E0A6F5D
:10167400410E0B6F4D0E0C6F450E0D6F0E6B410E30
:101684000F6F420E106F4F0E116F550E126F540EE6
:10169400136F146B440E156F650E166F730E176F70
:1016A400650E186F6E0E196F760E1A6F6F0E1B6F24
:1016B4006C0E1C6F760E1D6F690E1E6F640E1F6F0D
:1016C4006F0E206F200E216F700E226F6F0E236F2E
:1016D400720E246F3A0E256F266B480E276F6F0E1D
:1016E400286F6C0E296F6C0E2A6F770E2B6F650EA8
:1016F4002C6F670E2D6F2E6B760E2F6F2E0E306FA4
:10170400360E316F326B440E336F690E346F610ED7
:10171400356F720E366F690E376F6F0E386F396B17
:10172400640E3A6F6F0E3B6F200E3C6F430E3D6F9D
:10173400610E3E6F700E3F6F690E406F740E416F05
:10174400610E426F6F0E436F446B440E456F610E22
:10175400466F740E476F610E486F200E496F450E39
:101764004A6F730E4B6F740E4C6F650E4D6F6C0E9B
:101774004E6F610E4F6F720E506F516B310E526F80
:10178400350E536F310E546F320E556F2E0E566F49
:10179400320E576F586B530E596F650E5A6F670EA2
:1017A4005B6F750E5C6F690E5D6F610E5E6F6D0E23
:1017B4005F6F6F0E606F730E616F200E626F700E3D
:1017C400636F610E646F720E656F610E666F200E3B
:1017D400676F6F0E686F696B500E6A6F6C0E6B6F7C
:1017E400610E6C6F6E0E6D6F650E6E6F740E6F6FA3
:1017F400610E706F200E716F4B0E726F720E736FED
:10180400690E746F700E756F6B0E766F650E776F61
:10181400786B450E796F6D0E7A6F200E7B6F420EDA
:101824007C6F750E7D6F730E7E6F630E7F6F610E1E
:10183400806F200E816F640E826F6F0E836F846BD6
:10184400430E856F680E866F6F0E876F630E886F09
:101854006F0E896F6C0E8A6F610E8B6F740E8C6FB6
:10186400650E8D6F200E8E6F4D0E8F6F610E906F13
:10187400670E916F690E926F630E936F6F0E946F84
:10188400956B4D0E966F610E976F730E986F200EC9
:10189400996F610E9A6F760E9B6F690E9C6F730E33
:1018A4009D6F740E9E6F610E9F6F6D0EA06F6F0E15
:1018B400A16F730EA26FA36B460EA46F6F0EA56F7C
:1018C400720EA66F6D0EA76F690EA86F670EA96FD3
:1018D400610EAA6F730EAB6F200EAC6F410EAD6F2D
:1018E4006C0EAE6F690EAF6F650EB06F6E0EB16F9A
:1018F400730EB26FB36B460EB46F610EB56F6D0E9F
:10190400B66F690EB76F6E0EB86F740EB96F610E55
:10191400BA6F730EBB6F200EBC6F430EBD6F720E99
:10192400BE6F750EBF6F650EC06F690EC16F730E0B
:10193400C26FC36B530EC46F650EC56F640EC66F62
:10194400650EC76F6E0EC86F740EC96F610ECA6FD5
:10195400730ECB6F200ECC6F700ECD6F6F0ECE6FEB
:10196400720ECF6FD06B410ED16F630ED26F750EB6
:10197400D36F630ED46F610ED56F720ED66F200EC7
:10198400D76F480ED86F750ED96F6D0EDA6F610E72
:10199400DB6F6E0EDC6F6F0EDD6F2E0EDE6FDF6B96
:1019A400430EE06F6F0EE16F6C0EE26F6F0EE36F2C
:1019B400630EE46F610EE56F6D0EE66F6F0EE76FF9
:1019C400730EE86F200EE96F4E0EEA6F6F0EEB6F29
:1019D400730EEC6F730EED6F6F0EEE6F730EEF6F91
:1019E400F06B500EF16F680EF26F610EF36F730EB1
:1019F400F46F650EF56F720EF66F730EF76F200EAF
:101A0400F86F6E0EF96F6F0EFA6F200EFB6F4D0EAE
:101A1400FC6F6F0EFD6F640EFE6F6F0EFF6F0301A0
:101A2400006B430E016F610E026F720E036F610E45
:101A3400046F6D0E056F650E066F6C0E076F690EF1
:101A4400086F7A0E096F610E0A6F720E0B6F2E0EFD
:101A54000C6F2E0E0D6F2E0E0E6F0F6B410E106F4E
:101A6400200E116F420E126F610E136F740E146FFD
:101A7400610E156F6C0E166F680E176F610E186F7E
:101A8400200E196F450E1A6F730E1B6F740E1C6FA8
:101A9400610E1D6F760E1E6F610E1F6F206B500E50
:101AA400216F720E226F6F0E236F780E246F690EF2
:101AB400256F6D0E266F610E276F2E0E286F2E0E6A
:101AC400296F2E0E2A6F2B6B530E2C6F610E2D6F08
:101AD400630E2E6F610E2F6F6D0E306F6F0E316FB0
:101AE400730E326F200E336F610E346F730E356FC9
:101AF400200E366F410E376F720E386F6D0E396FD0
:101B0400610E3A6F730E3B6F3C6B450E3D6F200EBA
:101B14003E6F430E3F6F6F0E406F6D0E416F620E4E
:101B2400426F610E436F740E446F650E456F6D0E08
:101B3400466F6F0E476F730E486F496B450E4A6FC1
:101B4400730E4B6F730E4C6F650E4D6F730E4E6FAD
:101B5400200E4F6F410E506F6C0E516F690E526F15
:101B6400650E536F6E0E546F730E556F566B440EA5
:101B7400576F690E586F610E596F620E5A6F650E7A
:101B84005B6F740E5C6F690E5D6F630E5E6F6F0E3C
:101B94005F6F730E606F210E616F626B480E636F2F
:101BA400450E646F4C0E656F500E666F676B420E88
:101BB400686F750E696F740E6A6F740E6B6F6F0EBB
:101BC4006C6F6E0E6D6F200E6E6F300E6F6F3A0E6F
:101BD400706F550E716F500E726F736B420E746F8F
:101BE400750E756F740E766F740E776F6F0E786F57
:101BF4006E0E796F200E7A6F310E7B6F3A0E7C6F0A
:101C0400440E7D6F4F0E7E6F570E7F6F4E0E806FAA
:101C1400816B420E826F750E836F740E846F740E27
:101C2400856F6F0E866F6E0E876F200E886F320E73
:101C3400896F3A0E8A6F460E8B6F690E8C6F720E27
:101C44008D6F650E8E6F210E8F6F906B420E916FAC
:101C5400750E926F740E936F740E946F6F0E956F72
:101C64006E0E966F200E976F330E986F3A0E996F23
:101C7400530E9A6F500E9B6F450E9C6F430E9D6FD3
:101C8400490E9E6F410E9F6F4C0EA06FA16B4E0EBE
:101C9400A26F490EA36F560EA46F450EA56F4C0E8E
:101CA400A66F200EA76F310EA86FA96B450EAA6F01
:101CB4004D0EAB6F200EAC6F420EAD6F550EAE6F76
:101CC400530EAF6F430EB06F410EB16F200EB26F63
:101CD400440EB36F4F0EB46FB56B430EB66F480E20
:101CE400B76F4F0EB86F430EB96F4F0EBA6F4C0EED
:101CF400BB6F410EBC6F540EBD6F450EBE6F200E00
:101D0400BF6F4D0EC06F410EC16F470EC26F490EBB
:101D1400C36F430EC46F4F0EC56FC66B010ED36FF6
:101D240024EC00F0010E0301C86F030EC96FEF0E1F
:101D3400CA6F010ECB6F17EC05F0020E0301C86FDA
:101D4400040EC96FFC0ECA6F010ECB6F17EC05F0C1
:101D54007F0E0B6ED40E0C6E310E0D6E0D2EFED753
:101D64000C2EFCD70B2EFAD700000000010E030145
:101D7400D36F24EC00F0010E0301C86F030EC96F8A
:101D8400AA0ECA6F030ECB6F17EC05F0020E030107
:101D9400C86F010EC96FB60ECA6F030ECB6F17EC76
:101DA40005F07F0E0B6ED40E0C6E310E0D6E0D2EE3
:101DB400FED70C2EFCD70B2EFAD700000000010E24
:101DC4000301D36F24EC00F0010E0301C86F030E6E
:101DD400C96F060ECA6F020ECB6F17EC05F0020E28
:101DE4000301C86F030EC96F0F0ECA6F020ECB6FCB
:101DF40017EC05F0010E0301C86F0C0EC96F630EDA
:101E0400CA6F030ECB6F17EC05F0070E0B6E580E5E
:101E14000C6E590E0D6E0D2EFED70C2EFCD70B2E0C
:101E2400FAD700000000830E0301C86F0F0EC96FBC
:101E3400CA6BC80ECB6F010ECC6F80EC05F000525C
:101E4400D8B45DD2010ED36F24EC00F0010E03016F
:101E5400C86F060EC96F330ECA6F020ECB6F17EC34
:101E640005F0020E0301C86F040EC96F3A0ECA6F63
:101E7400020ECB6F17EC05F04D0E0B6E190E0C6EA7
:101E84004F0E0D6E0D2EFED70C2EFCD70B2EFAD74F
:101E940000000000830E0301C86F0F0EC96FCA6BE8
:101EA400C80ECB6F010ECC6F80EC05F0005201E040
:101EB40009D2010ED36F24EC00F0010E0301C86FA8
:101EC400030EC96F450ECA6F020ECB6F17EC05F0F7
:101ED400020E0301C86F060EC96F520ECA6F020EBE
:101EE400CB6F17EC05F04D0E0B6E190E0C6E4F0EEA
:101EF4000D6E0D2EFED70C2EFCD70B2EFAD700003C
:101F04000000830E0301C86F0F0EC96FCA6BC80EA1
:101F1400CB6F010ECC6F80EC05F0005201E0D2D102
:101F2400010ED36F24EC00F0010E0301C86F010E03
:101F3400C96F590ECA6F020ECB6F17EC05F0020E73
:101F44000301C86F020EC96F6A0ECA6F020ECB6F0F
:101F540017EC05F04D0E0B6E190E0C6E4F0E0D6E38
:101F64000D2EFED70C2EFCD70B2EFAD70000000046
:101F7400830E0301C86F0F0EC96FCA6BC80ECB6FF7
:101F8400010ECC6F80EC05F0005201E09BD1010EF4
:101F9400D36F24EC00F0010E0301C86F030EC96F68
:101FA400790ECA6F020ECB6F17EC05F0020E030117
:101FB400C86F010EC96F850ECA6F020ECB6F17EC86
:101FC40005F04D0E0B6E190E0C6E4F0E0D6E0D2E90
:101FD400FED70C2EFCD70B2EFAD700000000830E80
:101FE4000301C86F0F0EC96FCA6BC80ECB6F010E09
:101FF400CC6F80EC05F0005201E064D1010ED36F88
:1020040024EC00F0010E0301C86F020EC96F960E96
:10201400CA6F020ECB6F17EC05F0020E0301C86FF6
:10202400010EC96FA40ECA6F020ECB6F17EC05F038
:102034004D0E0B6E190E0C6E4F0E0D6E0D2EFED73F
:102044000C2EFCD70B2EFAD700000000830E0301E0
:10205400C86F0F0EC96FCA6BC80ECB6F010ECC6F61
:1020640080EC05F0005201E02DD1010ED36F24EC79
:1020740000F0010E0301C86F020EC96FB40ECA6FDF
:10208400020ECB6F17EC05F0020E0301C86F030EAE
:10209400C96FC40ECA6F020ECB6F17EC05F04D0E5C
:1020A4000B6E190E0C6E4F0E0D6E0D2EFED70C2EF0
:1020B400FCD70B2EFAD700000000830E0301C86F73
:1020C4000F0EC96FCA6BC80ECB6F010ECC6F80ECBC
:1020D40005F0005201E0F6D0010ED36F24EC00F0BD
:1020E400010E0301C86F020EC96FD10ECA6F020E32
:1020F400CB6F17EC05F0020E0301C86F010EC96F18
:10210400E00ECA6F020ECB6F17EC05F04D0E0B6E8E
:10211400190E0C6E4F0E0D6E0D2EFED70C2EFCD725
:102124000B2EFAD700000000830E0301C86F0F0EB8
:10213400C96FCA6BC80ECB6F010ECC6F80EC05F073
:10214400005201E0BFD0010ED36F24EC00F0010E69
:102154000301C86F010EC96FF10ECA6F020ECB6F77
:1021640017EC05F0020E0301C86F020EC96F010ED1
:10217400CA6F030ECB6F17EC05F04D0E0B6E190EE4
:102184000C6E4F0E0D6E0D2EFED70C2EFCD70B2EA3
:10219400FAD700000000830E0301C86F0F0EC96F49
:1021A400CA6BC80ECB6F010ECC6F80EC05F00052E9
:1021B40001E088D0010ED36F24EC00F0010E03017E
:1021C400C86F010EC96F100ECA6F030ECB6F17ECE8
:1021D40005F0020E0301C86F040EC96F210ECA6F09
:1021E400030ECB6F17EC05F04D0E0B6E190E0C6E33
:1021F4004F0E0D6E0D2EFED70C2EFCD70B2EFAD7DC
:1022040000000000830E0301C86F0F0EC96FCA6B74
:10221400C80ECB6F010ECC6F80EC05F0005201E0CC
:1022240051D0010ED36F24EC00F0010E0301C86FEE
:10223400010EC96F2C0ECA6F030ECB6F17EC05F09D
:10224400020E0301C86F020EC96F3D0ECA6F030E62
:10225400CB6F17EC05F04D0E0B6E190E0C6E4F0E76
:102264000D6E0D2EFED70C2EFCD70B2EFAD70000C8
:102274000000010E0301D36F24EC00F0010E0301F2
:10228400C86F010EC96F4A0ECA6F030ECB6F17ECED
:1022940005F0020E0301C86F040EC96F570ECA6F12
:1022A400030ECB6F17EC05F04D0E0B6E190E0C6E72
:1022B4004F0E0D6E0D2EFED70C2EFCD70B2EFAD71B
:1022C40000000000010E0301D36F24EC00F0010EA6
:1022D4000301C86F050EC96FA20ECA6F030ECB6F40
:1022E40017EC05F0660E0B6E760E0C6EC10E0D6EBD
:1022F4000D2EFED70C2EFCD70B2EFAD7E3D0830E6F
:102304000301C86F0F0EC96F010ECA6FC80ECB6FE1
:10231400010ECC6F80EC05F0005244E0010ED36F47
:1023240024EC00F0010E0301C86F010EC96F150EF5
:10233400CA6F020ECB6F17EC05F0020E0301C86FD3
:10234400010EC96F270ECA6F020ECB6F17EC05F092
:10235400020E0301C86F0D0EC96F2F0ECA6F020E55
:10236400CB6F17EC05F0100E0B6E390E0C6E0D0EC4
:102374000D6E0D2EFED70C2EFCD70B2EFAD70000B7
:102384000000830E0301C86F0F0EC96F010ECA6FE0
:10239400C80ECB6F010ECC6F80EC05F0005201E04B
:1023A4000ED5BCD7830EC86F0F0EC96F020ECA6F4D
:1023B400C80ECB6F010ECC6F80EC05F00052D8B480
:1023C40080D0830EC86F0F0EC96F010ECA6FC80E7E
:1023D400CB6F010ECC6F80EC05F0005201E0EFD41E
:1023E400010ED36F24EC00F0010E0301C86F010E3F
:1023F400C96F680ECA6F030ECB6F17EC05F0020E9F
:102404000301C86F010EC96F740ECA6F030ECB6F40
:1024140017EC05F0330E0B6EBB0E0C6EDF0E0D6E5B
:102424000D2EFED70C2EFCD70B2EFAD70000000081
:10243400830E0301C86F0F0EC96F010ECA6FC80E59
:10244400CB6F010ECC6F80EC05F0005201E0B7D4E5
:10245400010ED36F24EC00F0010E0301C86F010ECE
:10246400C96F820ECA6F030ECB6F17EC05F0020E14
:102474000301C86F010EC96F910ECA6F030ECB6FB3
:1024840017EC05F0330E0B6EBB0E0C6EDF0E0D6EEB
:102494000D2EFED70C2EFCD70B2EFAD70000000011
:1024A400830E0301C86F0F0EC96F010ECA6FC80EE9
:1024B400CB6F010ECC6F80EC05F0005201E07FD4AD
:0624C40080D77DD4120058
:1024CA000900F5CFE6FF0006FBE10106F9E112007B
:1024DA00949E949A94909492949494968B9E8B9AA8
:1024EA008B968B948B928B900EEC00F00EEC00F096
:1024FA000EEC00F08B828B808B8E1EEC00F08B9E94
:10250A000EEC00F08B8E1EEC00F08B9E0EEC00F0B1
:10251A008B8E1EEC00F08B9E0EEC00F08B908B8E57
:10252A001EEC00F08B9E0EEC00F08B8E1EEC00F081
:10253A008B9E8B928B868B8E1EEC00F08B9E0EEC04
:10254A0000F08B968B808B8E1EEC00F08B9E8B900E
:10255A008B8E1EEC00F08B9E0EEC00F08B8E1EEC28
:10256A0000F08B9E8B808B8E1EEC00F08B9E0EEC07
:10257A0000F08B908B8E1EEC00F08B9E8B868B84EA
:10258A008B828B808B8E1EEC00F08B9E0EEC00F003
:06259A000101E8811200BE
:1025A0000101EF6BF06BF16B800EF019006E800E85
:1025B000005C02E1100EEF5DD8B0FDEF18F0020EE6
:1025C000D86F010E0301D36F24EC00F0A0EC00F0F3
:1025D00088EF18F0020E0301D06F100ED16F060EB7
:1025E000D26F66EC00F00F0EE16F100EE96F830EF4
:1025F0000301C86F0F0EC96F020ECA6FC80ECB6FF2
:10260000010ECC6F80EC05F0005206E0DFC1DAF17C
:1026100068EC07F0010EDD6FC0EC00F0000E011851
:1026200002E1010E001804E0E251010A01E004D0C9
:102630000F0EEF6F000EF06F060E0B6E130E0C6E8A
:10264000AD0E0D6E0D2EFED70C2EFCD70B2EFAD72D
:1026500000000000F8EF18F0020E0301D06F0F0E1B
:10266000D16F060ED26F66EC00F00E0EE16F0F0E0A
:10267000E96FA0EC00F0B9EC09F0C0EC00F0000E3E
:10268000011802E1010E001807E10F0EEF6F000EB6
:10269000F06FD86B010EF16FF151000A2FE1DD519F
:1026A000010A03E168EC07F019D0830E0301C86F3B
:1026B0000F0EC96F020ECA6FC80ECB6F010ECC6F22
:1026C00080EC05F000520AE00101DD51000A06E14C
:1026D000DFC1DAF168EC07F0010EDD6FC0EC00F04D
:1026E000000E011802E1010E001804E0E251010A97
:1026F00001E004D00F0EEF6F000EF06F060E0B6EB0
:10270000130E0C6EAD0E0D6E0D2EFED70C2EFCD7DB
:102710000B2EFAD700000000F8EF18F0020E0301AC
:10272000D06F0E0ED16F060ED26F66EC00F00D0E5C
:10273000E16F0E0EE96FA0EC00F0B9EC09F0C0EC0F
:1027400000F0000E011802E1010E001807E10F0E63
:10275000EF6F000EF06FD86B010EF16FF151000AB0
:102760002FE1DD51010A03E168EC07F019D0830E77
:102770000301C86F0F0EC96F020ECA6FC80ECB6F70
:10278000010ECC6F80EC05F000520AE00101DD5132
:10279000000A06E1DFC1DAF168EC07F0010EDD6F37
:1027A000C0EC00F0000E011802E1010E001804E078
:1027B000E251010A01E004D00F0EEF6F000EF06F3E
:1027C000060E0B6E130E0C6EAD0E0D6E0D2EFED79B
:1027D0000C2EFCD70B2EFAD700000000F8EF18F0F3
:1027E000020E0301D06F0D0ED16F060ED26F66EC94
:1027F00000F00C0EE16F0D0EE96FA0EC00F0B9ECEB
:1028000009F0C0EC00F0000E011802E1010E001802
:1028100007E10F0EEF6F000EF06FD86B010EF16F36
:10282000F151000A2FE1DD51010A03E168EC07F0E4
:1028300019D0830E0301C86F0F0EC96F020ECA6F45
:10284000C80ECB6F010ECC6F80EC05F000520AE091
:102850000101DD51000A06E1DFC1DAF168EC07F0A1
:10286000010EDD6FC0EC00F0000E011802E1010E58
:10287000001804E0E251010A01E004D00F0EEF6FEE
:10288000000EF06F060E0B6E130E0C6EAD0E0D6E7D
:102890000D2EFED70C2EFCD70B2EFAD70000000011
:1028A000F8EF18F0020E0301D06F0C0ED16F060E78
:1028B000D26F66EC00F00B0EE16F0C0EE96FA0EC2E
:1028C00000F0B9EC09F0C0EC00F0000E011802E1D4
:1028D000010E001807E10F0EEF6F000EF06FD86BBE
:1028E000010EF16FF151000A2FE1DD51010A03E100
:1028F00068EC07F019D0830E0301C86F0F0EC96F83
:10290000020ECA6FC80ECB6F010ECC6F80EC05F0C3
:1029100000520AE00101DD51000A06E1DFC1DAF1EF
:1029200068EC07F0010EDD6FC0EC00F0000E01183E
:1029300002E1010E001804E0E251010A01E004D0B6
:102940000F0EEF6F000EF06F060E0B6E130E0C6E77
:10295000AD0E0D6E0D2EFED70C2EFCD70B2EFAD71A
:1029600000000000F8EF18F0020E0301D06F0B0E0C
:10297000D16F060ED26F66EC00F00A0EE16F0B0EFF
:10298000E96FA0EC00F0B9EC09F0C0EC00F0000E2B
:10299000011802E1010E001807E10F0EEF6F000EA3
:1029A000F06FD86B010EF16FF151000A2FE1DD518C
:1029B000010A03E168EC07F019D0830E0301C86F28
:1029C0000F0EC96F020ECA6FC80ECB6F010ECC6F0F
:1029D00080EC05F000520AE00101DD51000A06E139
:1029E000DFC1DAF168EC07F0010EDD6FC0EC00F03A
:1029F000000E011802E1010E001804E0E251010A84
:102A000001E004D00F0EEF6F000EF06F060E0B6E9C
:102A1000130E0C6EAD0E0D6E0D2EFED70C2EFCD7C8
:102A20000B2EFAD700000000E3D3020E0301D06F93
:102A30000A0ED16F060ED26F66EC00F0090EE16F40
:102A40000A0EE96FA0EC00F0B9EC09F0C0EC00F060
:102A5000000E011802E1010E001807E10F0EEF6FE2
:102A6000000EF06FD86B010EF16FF151000A2FE1EB
:102A7000DD51010A03E168EC07F019D0830E030170
:102A8000C86F0F0EC96F020ECA6FC80ECB6F010E52
:102A9000CC6F80EC05F000520AE00101DD51000A24
:102AA00006E1DFC1DAF168EC07F0010EDD6FC0EC82
:102AB00000F0000E011802E1010E001804E0E251DE
:102AC000010A01E004D00F0EEF6F000EF06F060E4A
:102AD0000B6E130E0C6EAD0E0D6E0D2EFED70C2E62
:102AE000FCD70B2EFAD70000000082D3020E0301A0
:102AF000D06F090ED16F060ED26F66EC00F0080E93
:102B0000E16F090EE96FA0EC00F0B9EC09F0C0EC40
:102B100000F0000E011802E1010E001807E10F0E8F
:102B2000EF6F000EF06FD86B010EF16FF151000ADC
:102B30002FE1DD51010A03E168EC07F019D0830EA3
:102B40000301C86F0F0EC96F020ECA6FC80ECB6F9C
:102B5000010ECC6F80EC05F000520AE00101DD515E
:102B6000000A06E1DFC1DAF168EC07F0010EDD6F63
:102B7000C0EC00F0000E011802E1010E001804E0A4
:102B8000E251010A01E004D00F0EEF6F000EF06F6A
:102B9000060E0B6E130E0C6EAD0E0D6E0D2EFED7C7
:102BA0000C2EFCD70B2EFAD70000000021D3020E0A
:102BB0000301D06F080ED16F060ED26F66EC00F0E5
:102BC000070EE16F080EE96FA0EC00F0B9EC09F018
:102BD000C0EC00F0000E011802E1010E001807E140
:102BE0000F0EEF6F000EF06FD86B010EF16FF15109
:102BF000000A2FE1DD51010A03E168EC07F019D06A
:102C0000830E0301C86F0F0EC96F020ECA6FC80E84
:102C1000CB6F010ECC6F80EC05F000520AE0010191
:102C2000DD51000A06E1DFC1DAF168EC07F0010EC0
:102C3000DD6FC0EC00F0000E011802E1010E00187B
:102C400004E0E251010A01E004D00F0EEF6F000E24
:102C5000F06F060E0B6E130E0C6EAD0E0D6E0D2E7C
:102C6000FED70C2EFCD70B2EFAD700000000C0D2E6
:102C7000020E0301D06F070ED16F060ED26F66EC05
:102C800000F0060EE16F070EE96FA0EC00F0B9EC62
:102C900009F0C0EC00F0000E011802E1010E00186E
:102CA00007E10F0EEF6F000EF06FD86B010EF16FA2
:102CB000F151000A2FE1DD51010A03E168EC07F050
:102CC00019D0830E0301C86F0F0EC96F020ECA6FB1
:102CD000C80ECB6F010ECC6F80EC05F000520AE0FD
:102CE0000101DD51000A06E1DFC1DAF168EC07F00D
:102CF000010EDD6FC0EC00F0000E011802E1010EC4
:102D0000001804E0E251010A01E004D00F0EEF6F59
:102D1000000EF06F060E0B6E130E0C6EAD0E0D6EE8
:102D20000D2EFED70C2EFCD70B2EFAD7000000007C
:102D30005FD2020E0301D06F060ED16F060ED26F66
:102D400066EC00F0050EE16F060EE96FA0EC00F0F6
:102D5000B9EC09F0C0EC00F0000E011802E1010E20
:102D6000001807E10F0EEF6F000EF06FD86B010E29
:102D7000F16FF151000A2FE1DD51010A03E168EC26
:102D800007F019D0830E0301C86F0F0EC96F020E32
:102D9000CA6FC80ECB6F010ECC6F80EC05F00052ED
:102DA0000AE00101DD51000A06E1DFC1DAF168EC59
:102DB00007F0010EDD6FC0EC00F0000E011802E11B
:102DC000010E001804E0E251010A01E004D00F0EE8
:102DD000EF6F000EF06F060E0B6E130E0C6EAD0E45
:102DE0000D6E0D2EFED70C2EFCD70B2EFAD7000041
:102DF0000000FED1020E0301D06F050ED16F060E4A
:102E0000D26F66EC00F0040EE16F050EE96FA0ECE6
:102E100000F0B9EC09F0C0EC00F0000E011802E17E
:102E2000010E001807E10F0EEF6F000EF06FD86B68
:102E3000010EF16FF151000A2FE1DD51010A03E1AA
:102E400068EC07F019D0830E0301C86F0F0EC96F2D
:102E5000020ECA6FC80ECB6F010ECC6F80EC05F06E
:102E600000520AE00101DD51000A06E1DFC1DAF19A
:102E700068EC07F0010EDD6FC0EC00F0000E0118E9
:102E800002E1010E001804E0E251010A01E004D061
:102E90000F0EEF6F000EF06F060E0B6E130E0C6E22
:102EA000AD0E0D6E0D2EFED70C2EFCD70B2EFAD7C5
:102EB000000000009DD1020E0301D06F040ED16FFF
:102EC000060ED26F66EC00F0030EE16F040EE96FA0
:102ED000A0EC00F0B9EC09F0C0EC00F0000E011815
:102EE00002E1010E001807E10F0EEF6F000EF06F08
:102EF000D86B010EF16FF151000A2FE1DD51010A8B
:102F000003E168EC07F019D0830E0301C86F0F0EC0
:102F1000C96F020ECA6FC80ECB6F010ECC6F80EC6A
:102F200005F000520AE00101DD51000A06E1DFC1AF
:102F3000DAF168EC07F0010EDD6FC0EC00F0000E76
:102F4000011802E1010E001804E0E251010A01E05B
:102F500004D00F0EEF6F000EF06F060E0B6E130E07
:102F60000C6EAD0E0D6E0D2EFED70C2EFCD70B2E5B
:102F7000FAD7000000003CD1020E0301D06F030E0F
:102F8000D16F060ED26F66EC00F0020EE16F030EF9
:102F9000E96F020ED76FA0EC00F0B9EC09F0C0ECBD
:102FA00000F0000E011802E1010E001807E10F0EFB
:102FB000EF6F000EF06FD86B010EF16FF151000A48
:102FC0002FE1DD51010A03E168EC07F019D0830E0F
:102FD0000301C86F0F0EC96F020ECA6FC80ECB6F08
:102FE000010ECC6F80EC05F000520AE00101DD51CA
:102FF000000A06E1DFC1DAF168EC07F0010EDD6FCF
:10300000C0EC00F0000E011802E1010E001804E00F
:10301000E251010A01E004D00F0EEF6F000EF06FD5
:10302000060E0B6E130E0C6EAD0E0D6E0D2EFED732
:103030000C2EFCD70B2EFAD700000000D9D0020EC0
:103040000301D06F020ED16F060ED26F66EC00F056
:10305000010EE16F020EE96F010ED76FA0EC00F0D8
:10306000B9EC09F0C0EC00F0000E011802E1010E0D
:10307000001807E10F0EEF6F000EF06FD86B010E16
:10308000F16FF151000A35E1DD51010A03E168EC0D
:1030900007F019D0830E0301C86F0F0EC96F020E1F
:1030A000CA6FC80ECB6F010ECC6F80EC05F00052DA
:1030B0000AE00101DD51000A06E1DFC1DAF168EC46
:1030C00007F0010EDD6FC0EC00F0000E011802E108
:1030D000010E001804E0E251010A01E005D00F0ED4
:1030E000EF6F000EF06F05D0D751010A02E11DEC21
:1030F00006F0060E0B6E130E0C6EAD0E0D6E0D2E41
:10310000FED70C2EFCD70B2EFAD70000000070D093
:10311000000E0101F01902E1010EEF19D8B4EAEF37
:1031200012F0000EF01902E1020EEF19D8B42CEFE4
:1031300013F0000EF01902E1030EEF19D8B48EEF70
:1031400013F0000EF01902E1040EEF19D8B4F0EFFD
:1031500013F0000EF01902E1050EEF19D8B452EF8A
:1031600014F0000EF01902E1060EEF19D8B4B4EF16
:1031700014F0000EF01902E1070EEF19D8B455D47F
:10318000000EF01902E1080EEF19D8B4AFD4000E0A
:10319000F01902E1090EEF19D8B409D5000EF019A3
:1031A00002E10A0EEF19D8B463D5000EF01902E15E
:1031B0000B0EEF19D8B4BDD5000EF01902E10C0EBC
:1031C000EF19D8B417D6000EF01902E10D0EEF1961
:1031D000D8B471D6000EF01902E10E0EEF19D8B472
:1031E000CBD6000EF01902E10F0EEF19D8B427D795
:1031F0000101EF4BF02BD4EF12F0020EDE6FDD6B0E
:10320000E96BDA6BDC6BE06BE16BD96BE26BF16B5A
:08321000D86B00017F6B120076
:103218000101EF6BF06BF16B800EF019006E800E00
:10322800005C02E1100EEF5DD8B039EF1FF0020E1E
:10323800D86F010E0301D36F24EC00F0A0EC00F06E
:10324800C4EF1EF0020E0301D06F100ED16F020EF4
:10325800D26F66EC00F00F0EE06F100EE96F830E70
:103268000301C86F0F0EC96F020ECA6FC80ECB6F6D
:10327800010ECC6F80EC05F0005206E0DFC1DAF1F8
:1032880068EC07F0010EDD6FC0EC00F0000E0118CD
:1032980002E1010E001804E0E251010A01E004D045
:1032A8000F0EEF6F000EF06F080E0B6E9D0E0C6E7A
:1032B800050E0D6E0D2EFED70C2EFCD70B2EFAD751
:1032C8000000000034EF1FF0020E0301D06F0F0E54
:1032D800D16F020ED26F66EC00F00E0EE06F0F0E8B
:1032E800E96FA0EC00F0B9EC09F0C0EC00F0000EBA
:1032F800011802E1010E001807E10F0EEF6F000E32
:10330800F06FD86B010EF16FF151000A2FE1DD511A
:10331800010A03E168EC07F019D0830E0301C86FB6
:103328000F0EC96F020ECA6FC80ECB6F010ECC6F9D
:1033380080EC05F000520AE00101DD51000A06E1C7
:10334800DFC1DAF168EC07F0010EDD6FC0EC00F0C8
:10335800000E011802E1010E001804E0E251010A12
:1033680001E004D00F0EEF6F000EF06F080E0B6E29
:103378009D0E0C6E050E0D6E0D2EFED70C2EFCD775
:103388000B2EFAD70000000034EF1FF0020E0301E5
:10339800D06F0E0ED16F020ED26F66EC00F00D0EDC
:1033A800E06F0E0EE96FA0EC00F0B9EC09F0C0EC8C
:1033B80000F0000E011802E1010E001807E10F0EDF
:1033C800EF6F000EF06FD86B010EF16FF151000A2C
:1033D8002FE1DD51010A03E168EC07F019D0830EF3
:1033E8000301C86F0F0EC96F020ECA6FC80ECB6FEC
:1033F800010ECC6F80EC05F000520AE00101DD51AE
:10340800000A06E1DFC1DAF168EC07F0010EDD6FB2
:10341800C0EC00F0000E011802E1010E001804E0F3
:10342800E251010A01E004D00F0EEF6F000EF06FB9
:10343800080E0B6E9D0E0C6E050E0D6E0D2EFED732
:103448000C2EFCD70B2EFAD70000000034EF1FF02B
:10345800020E0301D06F0D0ED16F020ED26F66EC13
:1034680000F00C0EE06F0D0EE96FA0EC00F0B9EC67
:1034780009F0C0EC00F0000E011802E1010E00187E
:1034880007E10F0EEF6F000EF06FD86B010EF16FB2
:10349800F151000A2FE1DD51010A03E168EC07F060
:1034A80019D0830E0301C86F0F0EC96F020ECA6FC1
:1034B800C80ECB6F010ECC6F80EC05F000520AE00D
:1034C8000101DD51000A06E1DFC1DAF168EC07F01D
:1034D800010EDD6FC0EC00F0000E011802E1010ED4
:1034E800001804E0E251010A01E004D00F0EEF6F6A
:1034F800000EF06F080E0B6E9D0E0C6E050E0D6E15
:103508000D2EFED70C2EFCD70B2EFAD7000000008C
:1035180034EF1FF0020E0301D06F0C0ED16F020EB4
:10352800D26F66EC00F00B0EE06F0C0EE96FA0ECAA
:1035380000F0B9EC09F0C0EC00F0000E011802E14F
:10354800010E001807E10F0EEF6F000EF06FD86B39
:10355800010EF16FF151000A2FE1DD51010A03E17B
:1035680068EC07F019D0830E0301C86F0F0EC96FFE
:10357800020ECA6FC80ECB6F010ECC6F80EC05F03F
:1035880000520AE00101DD51000A06E1DFC1DAF16B
:1035980068EC07F0010EDD6FC0EC00F0000E0118BA
:1035A80002E1010E001804E0E251010A01E004D032
:1035B8000F0EEF6F000EF06F080E0B6E9D0E0C6E67
:1035C800050E0D6E0D2EFED70C2EFCD70B2EFAD73E
:1035D8000000000034EF1FF0020E0301D06F0B0E45
:1035E800D16F020ED26F66EC00F00A0EE06F0B0E80
:1035F800E96FA0EC00F0B9EC09F0C0EC00F0000EA7
:10360800011802E1010E001807E10F0EEF6F000E1E
:10361800F06FD86B010EF16FF151000A2FE1DD5107
:10362800010A03E168EC07F019D0830E0301C86FA3
:103638000F0EC96F020ECA6FC80ECB6F010ECC6F8A
:1036480080EC05F000520AE00101DD51000A06E1B4
:10365800DFC1DAF168EC07F0010EDD6FC0EC00F0B5
:10366800000E011802E1010E001804E0E251010AFF
:1036780001E004D00F0EEF6F000EF06F080E0B6E16
:103688009D0E0C6E050E0D6E0D2EFED70C2EFCD762
:103698000B2EFAD700000000E3D3020E0301D06F0F
:1036A8000A0ED16F020ED26F66EC00F0090EE06FC1
:1036B8000A0EE96FA0EC00F0B9EC09F0C0EC00F0DC
:1036C800000E011802E1010E001807E10F0EEF6F5E
:1036D800000EF06FD86B010EF16FF151000A2FE167
:1036E800DD51010A03E168EC07F019D0830E0301EC
:1036F800C86F0F0EC96F020ECA6FC80ECB6F010ECE
:10370800CC6F80EC05F000520AE00101DD51000A9F
:1037180006E1DFC1DAF168EC07F0010EDD6FC0ECFD
:1037280000F0000E011802E1010E001804E0E25159
:10373800010A01E004D00F0EEF6F000EF06F080EC3
:103748000B6E9D0E0C6E050E0D6E0D2EFED70C2EFB
:10375800FCD70B2EFAD70000000082D3020E03011B
:10376800D06F090ED16F020ED26F66EC00F0080E12
:10377800E06F090EE96FA0EC00F0B9EC09F0C0ECBD
:1037880000F0000E011802E1010E001807E10F0E0B
:10379800EF6F000EF06FD86B010EF16FF151000A58
:1037A8002FE1DD51010A03E168EC07F019D0830E1F
:1037B8000301C86F0F0EC96F020ECA6FC80ECB6F18
:1037C800010ECC6F80EC05F000520AE00101DD51DA
:1037D800000A06E1DFC1DAF168EC07F0010EDD6FDF
:1037E800C0EC00F0000E011802E1010E001804E020
:1037F800E251010A01E004D00F0EEF6F000EF06FE6
:10380800080E0B6E9D0E0C6E050E0D6E0D2EFED75E
:103818000C2EFCD70B2EFAD70000000021D3020E85
:103828000301D06F080ED16F020ED26F66EC00F064
:10383800070EE06F080EE96FA0EC00F0B9EC09F094
:10384800C0EC00F0000E011802E1010E001807E1BB
:103858000F0EEF6F000EF06FD86B010EF16FF15184
:10386800000A2FE1DD51010A03E168EC07F019D0E5
:10387800830E0301C86F0F0EC96F020ECA6FC80E00
:10388800CB6F010ECC6F80EC05F000520AE001010D
:10389800DD51000A06E1DFC1DAF168EC07F0010E3C
:1038A800DD6FC0EC00F0000E011802E1010E0018F7
:1038B80004E0E251010A01E004D00F0EEF6F000EA0
:1038C800F06F080E0B6E9D0E0C6E050E0D6E0D2E14
:1038D800FED70C2EFCD70B2EFAD700000000C0D262
:1038E800020E0301D06F070ED16F020ED26F66EC85
:1038F80000F0060EE06F070EE96FA0EC00F0B9ECDF
:1039080009F0C0EC00F0000E011802E1010E0018E9
:1039180007E10F0EEF6F000EF06FD86B010EF16F1D
:10392800F151000A2FE1DD51010A03E168EC07F0CB
:1039380019D0830E0301C86F0F0EC96F020ECA6F2C
:10394800C80ECB6F010ECC6F80EC05F000520AE078
:103958000101DD51000A06E1DFC1DAF168EC07F088
:10396800010EDD6FC0EC00F0000E011802E1010E3F
:10397800001804E0E251010A01E004D00F0EEF6FD5
:10398800000EF06F080E0B6E9D0E0C6E050E0D6E80
:103998000D2EFED70C2EFCD70B2EFAD700000000F8
:1039A8005FD2020E0301D06F060ED16F020ED26FE6
:1039B80066EC00F0050EE06F060EE96FA0EC00F073
:1039C800B9EC09F0C0EC00F0000E011802E1010E9C
:1039D800001807E10F0EEF6F000EF06FD86B010EA5
:1039E800F16FF151000A2FE1DD51010A03E168ECA2
:1039F80007F019D0830E0301C86F0F0EC96F020EAE
:103A0800CA6FC80ECB6F010ECC6F80EC05F0005268
:103A18000AE00101DD51000A06E1DFC1DAF168ECD4
:103A280007F0010EDD6FC0EC00F0000E011802E196
:103A3800010E001804E0E251010A01E004D00F0E63
:103A4800EF6F000EF06F080E0B6E9D0E0C6E050EDC
:103A58000D6E0D2EFED70C2EFCD70B2EFAD70000BC
:103A68000000FED1020E0301D06F050ED16F020EC9
:103A7800D26F66EC00F0040EE06F050EE96FA0EC63
:103A880000F0B9EC09F0C0EC00F0000E011802E1FA
:103A9800010E001807E10F0EEF6F000EF06FD86BE4
:103AA800010EF16FF151000A2FE1DD51010A03E126
:103AB80068EC07F019D0830E0301C86F0F0EC96FA9
:103AC800020ECA6FC80ECB6F010ECC6F80EC05F0EA
:103AD80000520AE00101DD51000A06E1DFC1DAF116
:103AE80068EC07F0010EDD6FC0EC00F0000E011865
:103AF80002E1010E001804E0E251010A01E004D0DD
:103B08000F0EEF6F000EF06F080E0B6E9D0E0C6E11
:103B1800050E0D6E0D2EFED70C2EFCD70B2EFAD7E8
:103B2800000000009DD1020E0301D06F040ED16F7A
:103B3800020ED26F66EC00F0030EE06F040EE96F20
:103B4800A0EC00F0B9EC09F0C0EC00F0000E011890
:103B580002E1010E001807E10F0EEF6F000EF06F83
:103B6800D86B010EF16FF151000A2FE1DD51010A06
:103B780003E168EC07F019D0830E0301C86F0F0E3C
:103B8800C96F020ECA6FC80ECB6F010ECC6F80ECE6
:103B980005F000520AE00101DD51000A06E1DFC12B
:103BA800DAF168EC07F0010EDD6FC0EC00F0000EF2
:103BB800011802E1010E001804E0E251010A01E0D7
:103BC80004D00F0EEF6F000EF06F080E0B6E9D0EF7
:103BD8000C6E050E0D6E0D2EFED70C2EFCD70B2E7F
:103BE800FAD7000000003CD1020E0301D06F030E8B
:103BF800D16F020ED26F66EC00F0020EE06F030E7A
:103C0800E96F020ED76FA0EC00F0B9EC09F0C0EC38
:103C180000F0000E011802E1010E001807E10F0E76
:103C2800EF6F000EF06FD86B010EF16FF151000AC3
:103C38002FE1DD51010A03E168EC07F019D0830E8A
:103C48000301C86F0F0EC96F020ECA6FC80ECB6F83
:103C5800010ECC6F80EC05F000520AE00101DD5145
:103C6800000A06E1DFC1DAF168EC07F0010EDD6F4A
:103C7800C0EC00F0000E011802E1010E001804E08B
:103C8800E251010A01E004D00F0EEF6F000EF06F51
:103C9800080E0B6E9D0E0C6E050E0D6E0D2EFED7CA
:103CA8000C2EFCD70B2EFAD700000000D9D0020E3C
:103CB8000301D06F020ED16F020ED26F66EC00F0D6
:103CC800010EDC6F020EE96F010ED76FA0EC00F059
:103CD800B9EC09F0C0EC00F0000E011802E1010E89
:103CE800001807E10F0EEF6F000EF06FD86B010E92
:103CF800F16FF151000A35E1DD51010A03E168EC89
:103D080007F019D0830E0301C86F0F0EC96F020E9A
:103D1800CA6FC80ECB6F010ECC6F80EC05F0005255
:103D28000AE00101DD51000A06E1DFC1DAF168ECC1
:103D380007F0010EDD6FC0EC00F0000E011802E183
:103D4800010E001804E0E251010A01E005D00F0E4F
:103D5800EF6F000EF06F05D0D751010A02E11DEC9C
:103D680006F0080E0B6E9D0E0C6E050E0D6E0D2ED8
:103D7800FED70C2EFCD70B2EFAD70000000070D00F
:103D8800000E0101F01902E1010EEF19D8B426EF77
:103D980019F0000EF01902E1020EEF19D8B468EF1D
:103DA80019F0000EF01902E1030EEF19D8B4CAEFAA
:103DB80019F0000EF01902E1040EEF19D8B42CEF37
:103DC8001AF0000EF01902E1050EEF19D8B48EEFC3
:103DD8001AF0000EF01902E1060EEF19D8B4F0EF50
:103DE8001AF0000EF01902E1070EEF19D8B455D4F5
:103DF800000EF01902E1080EEF19D8B4AFD4000E86
:103E0800F01902E1090EEF19D8B409D5000EF0191E
:103E180002E10A0EEF19D8B463D5000EF01902E1D9
:103E28000B0EEF19D8B4BDD5000EF01902E10C0E37
:103E3800EF19D8B417D6000EF01902E10D0EEF19DC
:103E4800D8B471D6000EF01902E10E0EEF19D8B4ED
:103E5800CBD6000EF01902E10F0EEF19D8B427D710
:103E68000101EF4BF02B10EF19F0020EDE6FDD6B46
:103E7800E96BDA6BDC6BE06BE16BD96BE26BF16BD6
:083E8800D86B00017F6B1200F2
:103E90000101F06B010E0001BE6F010E0301D36F33
:103EA00024EC00F0A0EC00F0010E0301D06F100E26
:103EB000D16F070ED26F66EC00F0020E0301D06FD7
:103EC000100ED16F070ED26F66EC00F0B9EC09F05E
:103ED0000101EF51010A16E168EC07F0010E030140
:103EE000D06F100ED16F070ED26F66EC00F0020E8D
:103EF0000301D06F100ED16F070ED26F66EC00F089
:103F0000F02B27D0830E0301C86F0F0EC96F020E6E
:103F1000CA6FC80ECB6F010ECC6F80EC05F000525B
:103F200018E0DFC1DAF168EC07F0010E0301D06F91
:103F3000100ED16F070ED26F66EC00F0020E030177
:103F4000D06F100ED16F070ED26F66EC00F0010E2D
:103F5000EF6F070E0B6EDA0E0C6E380E0D6E010150
:103F60000D2EFDD70C2EFBD70B2EF9D70000800E9F
:103F7000F019006E800E0D0A005C8CE3DA51010A24
:103F800003E10001AE2B06D00101DA51020A02E181
:103F90000001AF2B0001AE51020A04E1AF51000A4B
:103FA00001E132D0AE51000A04E1AF51020A01E151
:103FB0002BD0AE51030A04E1AF51010A01E124D034
:103FC000AE51010A04E1AF51030A01E11DD0AE5127
:103FD000040A04E1AF51020A01E116D0AE51020A0F
:103FE00004E1AF51040A01E10FD0AE51050A04E12A
:103FF000AF51030A01E108D0AE51030A04E1AF5109
:10400000050A01E101D0C9D0AE6BAF6B0101DF51F0
:10401000010A5EE1010E0301D36F24EC00F0010EF2
:104020000301D06F010ED16F030ED26F66EC00F06A
:10403000120E0B6EC20E0C6E660E0D6E0D2EFED79E
:104040000C2EFCD70B2EFAD70000010E0301D06F07
:10405000010ED16F040ED26F66EC00F0120E0B6EE3
:10406000C20E0C6E660E0D6E0D2EFED70C2EFCD7FA
:104070000B2EFAD70000010E0301D06F010ED16F95
:10408000030ED26F66EC00F0120E0B6EC20E0C6EB9
:10409000660E0D6E0D2EFED70C2EFCD70B2EFAD70A
:1040A0000000010E0301D06F010ED16F040ED26F1C
:1040B00066EC00F0120E0B6EC20E0C6E660E0D6EEC
:1040C0000D2EFED70C2EFCD70B2EFAD7000060D099
:1040D000DF51020A5DE1010E0301D36F24EC00F011
:1040E000020E0301D06F010ED16F030ED26F66EC8A
:1040F00000F0120E0B6EC20E0C6E660E0D6E0D2EC3
:10410000FED70C2EFCD70B2EFAD70000020E0301AF
:10411000D06F010ED16F040ED26F66EC00F0120E5C
:104120000B6EC20E0C6E660E0D6E0D2EFED70C2E93
:10413000FCD70B2EFAD70000020E0301D06F010E40
:10414000D16F030ED26F66EC00F0120E0B6EC20E32
:104150000C6E660E0D6E0D2EFED70C2EFCD70B2EA0
:10416000FAD70000020E0301D06F010ED16F040ECA
:10417000D26F66EC00F0120E0B6EC20E0C6E660E65
:104180000D6E0D2EFED70C2EFCD70B2EFAD700008D
:104190001DEC06F0006A016A14D00001AE51040A59
:1041A0000AE1AF51040A07E1C5EC07F0010E006E09
:1041B000000E016E06D00101F06BEF6B020EDE6F98
:0441C000DA6B1200A4
:1041C4000101EF6BF06BF16B800EF019006E800E45
:1041D400005C02E1100EEF5DD8B00FEF27F0020E85
:1041E400D86F010E0301D36F24EC00F0A0EC00F0B3
:1041F4009AEF26F0020E0301D06F100ED16F010E5C
:10420400D26F66EC00F00F0EDC6F100EE96F830EB8
:104214000301C86F0F0EC96F020ECA6FC80ECB6FB1
:10422400010ECC6F80EC05F0005206E0DFC1DAF13C
:1042340068EC07F0010EDD6FC0EC00F0000E011811
:1042440002E1010E001804E0E251010A01E004D089
:104254000F0EEF6F000EF06F060E0B6E130E0C6E4A
:10426400AD0E0D6E0D2EFED70C2EFCD70B2EFAD7ED
:10427400000000000AEF27F0020E0301D06F0F0EBA
:10428400D16F010ED26F66EC00F00E0EDC6F0F0ED4
:10429400E96FA0EC00F0B9EC09F0C0EC00F0000EFE
:1042A400011802E1010E001807E10F0EEF6F000E76
:1042B400F06FD86B010EF16FF151000A2FE1DD515F
:1042C400010A03E168EC07F019D0830E0301C86FFB
:1042D4000F0EC96F020ECA6FC80ECB6F010ECC6FE2
:1042E40080EC05F000520AE00101DD51000A06E10C
:1042F400DFC1DAF168EC07F0010EDD6FC0EC00F00D
:10430400000E011802E1010E001804E0E251010A56
:1043140001E004D00F0EEF6F000EF06F060E0B6E6F
:10432400130E0C6EAD0E0D6E0D2EFED70C2EFCD79B
:104334000B2EFAD7000000000AEF27F0020E03014B
:10434400D06F0E0ED16F010ED26F66EC00F00D0E21
:10435400DC6F0E0EE96FA0EC00F0B9EC09F0C0ECD4
:1043640000F0000E011802E1010E001807E10F0E23
:10437400EF6F000EF06FD86B010EF16FF151000A70
:104384002FE1DD51010A03E168EC07F019D0830E37
:104394000301C86F0F0EC96F020ECA6FC80ECB6F30
:1043A400010ECC6F80EC05F000520AE00101DD51F2
:1043B400000A06E1DFC1DAF168EC07F0010EDD6FF7
:1043C400C0EC00F0000E011802E1010E001804E038
:1043D400E251010A01E004D00F0EEF6F000EF06FFE
:1043E400060E0B6E130E0C6EAD0E0D6E0D2EFED75B
:1043F4000C2EFCD70B2EFAD7000000000AEF27F092
:10440400020E0301D06F0D0ED16F010ED26F66EC58
:1044140000F00C0EDC6F0D0EE96FA0EC00F0B9ECAF
:1044240009F0C0EC00F0000E011802E1010E0018C2
:1044340007E10F0EEF6F000EF06FD86B010EF16FF6
:10444400F151000A2FE1DD51010A03E168EC07F0A4
:1044540019D0830E0301C86F0F0EC96F020ECA6F05
:10446400C80ECB6F010ECC6F80EC05F000520AE051
:104474000101DD51000A06E1DFC1DAF168EC07F061
:10448400010EDD6FC0EC00F0000E011802E1010E18
:10449400001804E0E251010A01E004D00F0EEF6FAE
:1044A400000EF06F060E0B6E130E0C6EAD0E0D6E3D
:1044B4000D2EFED70C2EFCD70B2EFAD700000000D1
:1044C4000AEF27F0020E0301D06F0C0ED16F010E1C
:1044D400D26F66EC00F00B0EDC6F0C0EE96FA0ECF3
:1044E40000F0B9EC09F0C0EC00F0000E011802E194
:1044F400010E001807E10F0EEF6F000EF06FD86B7E
:10450400010EF16FF151000A2FE1DD51010A03E1BF
:1045140068EC07F019D0830E0301C86F0F0EC96F42
:10452400020ECA6FC80ECB6F010ECC6F80EC05F083
:1045340000520AE00101DD51000A06E1DFC1DAF1AF
:1045440068EC07F0010EDD6FC0EC00F0000E0118FE
:1045540002E1010E001804E0E251010A01E004D076
:104564000F0EEF6F000EF06F060E0B6E130E0C6E37
:10457400AD0E0D6E0D2EFED70C2EFCD70B2EFAD7DA
:10458400000000000AEF27F0020E0301D06F0B0EAB
:10459400D16F010ED26F66EC00F00A0EDC6F0B0EC9
:1045A400E96FA0EC00F0B9EC09F0C0EC00F0000EEB
:1045B400011802E1010E001807E10F0EEF6F000E63
:1045C400F06FD86B010EF16FF151000A2FE1DD514C
:1045D400010A03E168EC07F019D0830E0301C86FE8
:1045E4000F0EC96F020ECA6FC80ECB6F010ECC6FCF
:1045F40080EC05F000520AE00101DD51000A06E1F9
:10460400DFC1DAF168EC07F0010EDD6FC0EC00F0F9
:10461400000E011802E1010E001804E0E251010A43
:1046240001E004D00F0EEF6F000EF06F060E0B6E5C
:10463400130E0C6EAD0E0D6E0D2EFED70C2EFCD788
:104644000B2EFAD700000000E3D3020E0301D06F53
:104654000A0ED16F010ED26F66EC00F0090EDC6F0A
:104664000A0EE96FA0EC00F0B9EC09F0C0EC00F020
:10467400000E011802E1010E001807E10F0EEF6FA2
:10468400000EF06FD86B010EF16FF151000A2FE1AB
:10469400DD51010A03E168EC07F019D0830E030130
:1046A400C86F0F0EC96F020ECA6FC80ECB6F010E12
:1046B400CC6F80EC05F000520AE00101DD51000AE4
:1046C40006E1DFC1DAF168EC07F0010EDD6FC0EC42
:1046D40000F0000E011802E1010E001804E0E2519E
:1046E400010A01E004D00F0EEF6F000EF06F060E0A
:1046F4000B6E130E0C6EAD0E0D6E0D2EFED70C2E22
:10470400FCD70B2EFAD70000000082D3020E03015F
:10471400D06F090ED16F010ED26F66EC00F0080E57
:10472400DC6F090EE96FA0EC00F0B9EC09F0C0EC05
:1047340000F0000E011802E1010E001807E10F0E4F
:10474400EF6F000EF06FD86B010EF16FF151000A9C
:104754002FE1DD51010A03E168EC07F019D0830E63
:104764000301C86F0F0EC96F020ECA6FC80ECB6F5C
:10477400010ECC6F80EC05F000520AE00101DD511E
:10478400000A06E1DFC1DAF168EC07F0010EDD6F23
:10479400C0EC00F0000E011802E1010E001804E064
:1047A400E251010A01E004D00F0EEF6F000EF06F2A
:1047B400060E0B6E130E0C6EAD0E0D6E0D2EFED787
:1047C4000C2EFCD70B2EFAD70000000021D3020ECA
:1047D4000301D06F080ED16F010ED26F66EC00F0AA
:1047E400070EDC6F080EE96FA0EC00F0B9EC09F0DD
:1047F400C0EC00F0000E011802E1010E001807E100
:104804000F0EEF6F000EF06FD86B010EF16FF151C8
:10481400000A2FE1DD51010A03E168EC07F019D029
:10482400830E0301C86F0F0EC96F020ECA6FC80E44
:10483400CB6F010ECC6F80EC05F000520AE0010151
:10484400DD51000A06E1DFC1DAF168EC07F0010E80
:10485400DD6FC0EC00F0000E011802E1010E00183B
:1048640004E0E251010A01E004D00F0EEF6F000EE4
:10487400F06F060E0B6E130E0C6EAD0E0D6E0D2E3C
:10488400FED70C2EFCD70B2EFAD700000000C0D2A6
:10489400020E0301D06F070ED16F010ED26F66ECCA
:1048A40000F0060EDC6F070EE96FA0EC00F0B9EC27
:1048B40009F0C0EC00F0000E011802E1010E00182E
:1048C40007E10F0EEF6F000EF06FD86B010EF16F62
:1048D400F151000A2FE1DD51010A03E168EC07F010
:1048E40019D0830E0301C86F0F0EC96F020ECA6F71
:1048F400C80ECB6F010ECC6F80EC05F000520AE0BD
:104904000101DD51000A06E1DFC1DAF168EC07F0CC
:10491400010EDD6FC0EC00F0000E011802E1010E83
:10492400001804E0E251010A01E004D00F0EEF6F19
:10493400000EF06F060E0B6E130E0C6EAD0E0D6EA8
:104944000D2EFED70C2EFCD70B2EFAD7000000003C
:104954005FD2020E0301D06F060ED16F010ED26F2B
:1049640066EC00F0050EDC6F060EE96FA0EC00F0BB
:10497400B9EC09F0C0EC00F0000E011802E1010EE0
:10498400001807E10F0EEF6F000EF06FD86B010EE9
:10499400F16FF151000A2FE1DD51010A03E168ECE6
:1049A40007F019D0830E0301C86F0F0EC96F020EF2
:1049B400CA6FC80ECB6F010ECC6F80EC05F00052AD
:1049C4000AE00101DD51000A06E1DFC1DAF168EC19
:1049D40007F0010EDD6FC0EC00F0000E011802E1DB
:1049E400010E001804E0E251010A01E004D00F0EA8
:1049F400EF6F000EF06F060E0B6E130E0C6EAD0E05
:104A04000D6E0D2EFED70C2EFCD70B2EFAD7000000
:104A14000000FED1020E0301D06F050ED16F010E0E
:104A2400D26F66EC00F0040EDC6F050EE96FA0ECAB
:104A340000F0B9EC09F0C0EC00F0000E011802E13E
:104A4400010E001807E10F0EEF6F000EF06FD86B28
:104A5400010EF16FF151000A2FE1DD51010A03E16A
:104A640068EC07F019D0830E0301C86F0F0EC96FED
:104A7400020ECA6FC80ECB6F010ECC6F80EC05F02E
:104A840000520AE00101DD51000A06E1DFC1DAF15A
:104A940068EC07F0010EDD6FC0EC00F0000E0118A9
:104AA40002E1010E001804E0E251010A01E004D021
:104AB4000F0EEF6F000EF06F060E0B6E130E0C6EE2
:104AC400AD0E0D6E0D2EFED70C2EFCD70B2EFAD785
:104AD400000000009DD1020E0301D06F040ED16FBF
:104AE400010ED26F66EC00F0030EDC6F040EE96F6A
:104AF400A0EC00F0B9EC09F0C0EC00F0000E0118D5
:104B040002E1010E001807E10F0EEF6F000EF06FC7
:104B1400D86B010EF16FF151000A2FE1DD51010A4A
:104B240003E168EC07F019D0830E0301C86F0F0E80
:104B3400C96F020ECA6FC80ECB6F010ECC6F80EC2A
:104B440005F000520AE00101DD51000A06E1DFC16F
:104B5400DAF168EC07F0010EDD6FC0EC00F0000E36
:104B6400011802E1010E001804E0E251010A01E01B
:104B740004D00F0EEF6F000EF06F060E0B6E130EC7
:104B84000C6EAD0E0D6E0D2EFED70C2EFCD70B2E1B
:104B9400FAD7000000003CD1020E0301D06F030ECF
:104BA400D16F010ED26F66EC00F0020EDC6F030EC3
:104BB400E96F020ED76FA0EC00F0B9EC09F0C0EC7D
:104BC40000F0000E011802E1010E001807E10F0EBB
:104BD400EF6F000EF06FD86B010EF16FF151000A08
:104BE4002FE1DD51010A03E168EC07F019D0830ECF
:104BF4000301C86F0F0EC96F020ECA6FC80ECB6FC8
:104C0400010ECC6F80EC05F000520AE00101DD5189
:104C1400000A06E1DFC1DAF168EC07F0010EDD6F8E
:104C2400C0EC00F0000E011802E1010E001804E0CF
:104C3400E251010A01E004D00F0EEF6F000EF06F95
:104C4400060E0B6E130E0C6EAD0E0D6E0D2EFED7F2
:104C54000C2EFCD70B2EFAD700000000D9D0020E80
:104C64000301D06F020ED16F010ED26F66EC00F01B
:104C7400010EDC6F020EE96F010ED76FA0EC00F09D
:104C8400B9EC09F0C0EC00F0000E011802E1010ECD
:104C9400001807E10F0EEF6F000EF06FD86B010ED6
:104CA400F16FF151000A35E1DD51010A03E168ECCD
:104CB40007F019D0830E0301C86F0F0EC96F020EDF
:104CC400CA6FC80ECB6F010ECC6F80EC05F000529A
:104CD4000AE00101DD51000A06E1DFC1DAF168EC06
:104CE40007F0010EDD6FC0EC00F0000E011802E1C8
:104CF400010E001804E0E251010A01E005D00F0E94
:104D0400EF6F000EF06F05D0D751010A02E11DECE0
:104D140006F0060E0B6E130E0C6EAD0E0D6E0D2E00
:104D2400FED70C2EFCD70B2EFAD70000000070D053
:104D3400000E0101F01902E1010EEF19D8B4FCEFE5
:104D440020F0000EF01902E1020EEF19D8B43EEF84
:104D540021F0000EF01902E1030EEF19D8B4A0EF10
:104D640021F0000EF01902E1040EEF19D8B402EF9D
:104D740022F0000EF01902E1050EEF19D8B464EF29
:104D840022F0000EF01902E1060EEF19D8B4C6EFB6
:104D940022F0000EF01902E1070EEF19D8B455D431
:104DA400000EF01902E1080EEF19D8B4AFD4000ECA
:104DB400F01902E1090EEF19D8B409D5000EF01963
:104DC40002E10A0EEF19D8B463D5000EF01902E11E
:104DD4000B0EEF19D8B4BDD5000EF01902E10C0E7C
:104DE400EF19D8B417D6000EF01902E10D0EEF1921
:104DF400D8B471D6000EF01902E10E0EEF19D8B432
:104E0400CBD6000EF01902E10F0EEF19D8B427D754
:104E14000101EF4BF02BE6EF20F0020EDE6FDD6BAD
:104E2400E96BDA6BDC6BE06BE16BD96BE26BF16B1A
:084E3400D86B00017F6B120036
:104E3C000101EF6BF06BF16B800EF019006E800EC0
:104E4C00005C02E1100EEF5DD8B04DEF2DF0010EBD
:104E5C00DB6F010E0301D36F24EC00F0A0EC00F02B
:104E6C00D8EF2CF0010E0301D06F100ED16F020E93
:104E7C00D26F66EC00F00F0EE06F100EEA6FA0EC34
:104E8C0000F0830E0301C86F0F0EC96F020ECA6FBC
:104E9C00C80ECB6F010ECC6F80EC05F0005206E013
:104EAC00DFC1DAF168EC07F0010EDD6FC0EC00F049
:104EBC00000E011802E1010E001804E0E251010A93
:104ECC0001E004D00F0EEF6F000EF06F040E0B6EAE
:104EDC00CF0E0C6E010E0D6E0D2EFED70C2EFCD7C8
:104EEC000B2EFAD70000000048EF2DF0010E030145
:104EFC00D06F0F0ED16F020ED26F66EC00F00E0E5B
:104F0C00E06F0F0EEA6FA0EC00F0B9EC09F0C0EC0A
:104F1C0000F0000E011802E1010E001807E10F0E5F
:104F2C00EF6F000EF06FDB6B010EF16FF151000AA9
:104F3C0031E1C0EC00F0DD51010A03E168EC07F04F
:104F4C0019D0830E0301C86F0F0EC96F020ECA6F02
:104F5C00C80ECB6F010ECC6F80EC05F000520AE04E
:104F6C000101DD51000A06E1DFC1DAF168EC07F05E
:104F7C00010EDD6FC0EC00F0000E011802E1010E15
:104F8C00001804E0E251010A01E004D00F0EEF6FAB
:104F9C00000EF06F040E0B6ECF0E0C6E010E0D6E2C
:104FAC000D2EFED70C2EFCD70B2EFAD700000000CE
:104FBC0048EF2DF0010E0301D06F0E0ED16F020ED3
:104FCC00D26F66EC00F00D0EE06F0E0EEA6FA0ECE7
:104FDC0000F0B9EC09F0C0EC00F0000E011802E191
:104FEC00010E001807E10F0EEF6F000EF06FDB6B78
:104FFC00010EF16FF151000A2FE1DD51010A03E1BD
:10500C0068EC07F019D0830E0301C86F0F0EC96F3F
:10501C00020ECA6FC80ECB6F010ECC6F80EC05F080
:10502C0000520AE00101DD51000A06E1DFC1DAF1AC
:10503C0068EC07F0010EDD6FC0EC00F0000E0118FB
:10504C0002E1010E001804E0E251010A01E004D073
:10505C000F0EEF6F000EF06F040E0B6ECF0E0C6E7A
:10506C00010E0D6E0D2EFED70C2EFCD70B2EFAD783
:10507C000000000048EF2DF0010E0301D06F0D0E63
:10508C00D16F020ED26F66EC00F00C0EE06F0D0EBD
:10509C00EA6FA0EC00F0B9EC09F0C0EC00F0000EE7
:1050AC00011802E1010E001807E10F0EEF6F000E60
:1050BC00F06FDB6B010EF16FF151000A2FE1DD5146
:1050CC00010A03E168EC07F019D0830E0301C86FE5
:1050DC000F0EC96F020ECA6FC80ECB6F010ECC6FCC
:1050EC0080EC05F000520AE00101DD51000A06E1F6
:1050FC00DFC1DAF168EC07F0010EDD6FC0EC00F0F7
:10510C00000E011802E1010E001804E0E251010A40
:10511C0001E004D00F0EEF6F000EF06F040E0B6E5B
:10512C00CF0E0C6E010E0D6E0D2EFED70C2EFCD775
:10513C000B2EFAD70000000048EF2DF0010E0301F2
:10514C00D06F0C0ED16F020ED26F66EC00F00B0E0E
:10515C00E06F0C0EEA6FA0EC00F0B9EC09F0C0ECBB
:10516C0000F0000E011802E1010E001807E10F0E0D
:10517C00EF6F000EF06FDB6B010EF16FF151000A57
:10518C002FE1DD51010A03E168EC07F019D0830E21
:10519C000301C86F0F0EC96F020ECA6FC80ECB6F1A
:1051AC00010ECC6F80EC05F000520AE00101DD51DC
:1051BC00000A06E1DFC1DAF168EC07F0010EDD6FE1
:1051CC00C0EC00F0000E011802E1010E001804E022
:1051DC00E251010A01E004D00F0EEF6F000EF06FE8
:1051EC00080E0B6E9D0E0C6E050E0D6E0D2EFED761
:1051FC000C2EFCD70B2EFAD70000000048EF2DF038
:10520C00010E0301D06F0B0ED16F020ED26F66EC44
:10521C0000F00A0EE06F0B0EEA6FA0EC00F0B9EC98
:10522C0009F0C0EC00F0000E011802E1010E0018AC
:10523C0007E10F0EEF6F000EF06FDB6B010EF16FDD
:10524C00F151000A2FE1DD51010A03E168EC07F08E
:10525C0019D0830E0301C86F0F0EC96F020ECA6FEF
:10526C00C80ECB6F010ECC6F80EC05F000520AE03B
:10527C000101DD51000A06E1DFC1DAF168EC07F04B
:10528C00010EDD6FC0EC00F0000E011802E1010E02
:10529C00001804E0E251010A01E004D00F0EEF6F98
:1052AC00000EF06F040E0B6ECF0E0C6E010E0D6E19
:1052BC000D2EFED70C2EFCD70B2EFAD700000000BB
:1052CC00E1D3010E0301D06F0A0ED16F020ED26F23
:1052DC0066EC00F0090EE06F0A0EEA6FA0EC00F02D
:1052EC00B9EC09F0C0EC00F0000E011802E1010E5F
:1052FC00001807E10F0EEF6F000EF06FDB6B010E65
:10530C00F16FF151000A2FE1DD51010A03E168EC64
:10531C0007F019D0830E0301C86F0F0EC96F020E70
:10532C00CA6FC80ECB6F010ECC6F80EC05F000522B
:10533C000AE00101DD51000A06E1DFC1DAF168EC97
:10534C0007F0010EDD6FC0EC00F0000E011802E159
:10535C00010E001804E0E251010A01E004D00F0E26
:10536C00EF6F000EF06F040E0B6ECF0E0C6E010E75
:10537C000D6E0D2EFED70C2EFCD70B2EFAD700007F
:10538C00000080D3010E0301D06F090ED16F020E05
:10539C00D26F66EC00F0080EE06F090EEA6FA0EC1D
:1053AC0000F0B9EC09F0C0EC00F0000E011802E1BD
:1053BC00010E001807E10F0EEF6F000EF06FDB6BA4
:1053CC00010EF16FF151000A2FE1DD51010A03E1E9
:1053DC0068EC07F019D0830E0301C86F0F0EC96F6C
:1053EC00020ECA6FC80ECB6F010ECC6F80EC05F0AD
:1053FC0000520AE00101DD51000A06E1DFC1DAF1D9
:10540C0068EC07F0010EDD6FC0EC00F0000E011827
:10541C0002E1010E001804E0E251010A01E004D09F
:10542C000F0EEF6F000EF06F040E0B6ECF0E0C6EA6
:10543C00010E0D6E0D2EFED70C2EFCD70B2EFAD7AF
:10544C00000000001FD3010E0301D06F080ED16FB6
:10545C00020ED26F66EC00F0070EE06F080EEA6FDA
:10546C00A0EC00F0B9EC09F0C0EC00F0000E011853
:10547C0002E1010E001807E10F0EEF6F000EF06F46
:10548C00DB6B010EF16FF151000A2FE1DD51010AC6
:10549C0003E168EC07F019D0830E0301C86F0F0EFF
:1054AC00C96F020ECA6FC80ECB6F010ECC6F80ECA9
:1054BC0005F000520AE00101DD51000A06E1DFC1EE
:1054CC00DAF168EC07F0010EDD6FC0EC00F0000EB5
:1054DC00011802E1010E001804E0E251010A01E09A
:1054EC0004D00F0EEF6F000EF06F040E0B6ECF0E8C
:1054FC000C6E010E0D6E0D2EFED70C2EFCD70B2E46
:10550C00FAD700000000BED2010E0301D06F070EC7
:10551C00D16F020ED26F66EC00F0060EE06F070E34
:10552C00EA6FA0EC00F0B9EC09F0C0EC00F0000E52
:10553C00011802E1010E001807E10F0EEF6F000ECB
:10554C00F06FDB6B010EF16FF151000A2FE1DD51B1
:10555C00010A03E168EC07F019D0830E0301C86F50
:10556C000F0EC96F020ECA6FC80ECB6F010ECC6F37
:10557C0080EC05F000520AE00101DD51000A06E161
:10558C00DFC1DAF168EC07F0010EDD6FC0EC00F062
:10559C00000E011802E1010E001804E0E251010AAC
:1055AC0001E004D00F0EEF6F000EF06F040E0B6EC7
:1055BC00CF0E0C6E010E0D6E0D2EFED70C2EFCD7E1
:1055CC000B2EFAD7000000005DD2010E0301D06F44
:1055DC00060ED16F020ED26F66EC00F0050EE06F76
:1055EC00060EEA6FA0EC00F0B9EC09F0C0EC00F08C
:1055FC00000E011802E1010E001807E10F0EEF6F0B
:10560C00000EF06FDB6B010EF16FF151000A2FE110
:10561C00DD51010A03E168EC07F019D0830E030198
:10562C00C86F0F0EC96F020ECA6FC80ECB6F010E7A
:10563C00CC6F80EC05F000520AE00101DD51000A4C
:10564C0006E1DFC1DAF168EC07F0010EDD6FC0ECAA
:10565C0000F0000E011802E1010E001804E0E25106
:10566C00010A01E004D00F0EEF6F000EF06F040E74
:10567C000B6ECF0E0C6E010E0D6E0D2EFED70C2E7A
:10568C00FCD70B2EFAD700000000FCD1010E030151
:10569C00D06F050ED16F020ED26F66EC00F0040EC7
:1056AC00E06F050EEA6FA0EC00F0B9EC09F0C0EC6D
:1056BC0000F0000E011802E1010E001807E10F0EB8
:1056CC00EF6F000EF06FDB6B010EF16FF151000A02
:1056DC002FE1DD51010A03E168EC07F019D0830ECC
:1056EC000301C86F0F0EC96F020ECA6FC80ECB6FC5
:1056FC00010ECC6F80EC05F000520AE00101DD5187
:10570C00000A06E1DFC1DAF168EC07F0010EDD6F8B
:10571C00C0EC00F0000E011802E1010E001804E0CC
:10572C00E251010A01E004D00F0EEF6F000EF06F92
:10573C00040E0B6ECF0E0C6E010E0D6E0D2EFED7E1
:10574C000C2EFCD70B2EFAD7000000009BD1010EBB
:10575C000301D06F040ED16F020ED26F66EC00F015
:10576C00030EE06F040EEA6FA0EC00F0B9EC09F048
:10577C00C0EC00F0000E011802E1010E001807E168
:10578C000F0EEF6F000EF06FDB6B010EF16FF1512E
:10579C00000A2FE1DD51010A03E168EC07F019D092
:1057AC00830E0301C86F0F0EC96F020ECA6FC80EAD
:1057BC00CB6F010ECC6F80EC05F000520AE00101BA
:1057CC00DD51000A06E1DFC1DAF168EC07F0010EE9
:1057DC00DD6FC0EC00F0000E011802E1010E0018A4
:1057EC0004E0E251010A01E004D00F0EEF6F000E4D
:1057FC00F06F040E0B6ECF0E0C6E010E0D6E0D2E97
:10580C00FED70C2EFCD70B2EFAD7000000003AD195
:10581C00010E0301D06F030ED16F020ED26F66EC36
:10582C0000F0020EE06F030EEA6FA0EC00F0B9EC92
:10583C0009F0C0EC00F0000E011802E1010E001896
:10584C0007E10F0EEF6F000EF06FDB6B010EF16FC7
:10585C00F151000A2FE1DD51010A03E168EC07F078
:10586C0019D0830E0301C86F0F0EC96F020ECA6FD9
:10587C00C80ECB6F010ECC6F80EC05F000520AE025
:10588C000101DD51000A06E1DFC1DAF168EC07F035
:10589C00010EDD6FC0EC00F0000E011802E1010EEC
:1058AC00001804E0E251010A01E004D00F0EEF6F82
:1058BC00000EF06F040E0B6ECF0E0C6E010E0D6E03
:1058CC000D2EFED70C2EFCD70B2EFAD700000000A5
:1058DC00D9D0010E0301D06F020ED16F020ED26F20
:1058EC0066EC00F0010EE06F020EEA6F010ED76F4E
:1058FC00A0EC00F0B9EC09F0C0EC00F0000E0118BF
:10590C0002E1010E001807E10F0EEF6F000EF06FB1
:10591C00DB6B010EF16FF151000A35E1DD51010A2B
:10592C0003E168EC07F019D0830E0301C86F0F0E6A
:10593C00C96F020ECA6FC80ECB6F010ECC6F80EC14
:10594C0005F000520AE00101DD51000A06E1DFC159
:10595C00DAF168EC07F0010EDD6FC0EC00F0000E20
:10596C00011802E1010E001804E0E251010A01E005
:10597C0005D00F0EEF6F000EF06F05D0D751010A56
:10598C0002E11DEC06F0040E0B6ECF0E0C6E010E38
:10599C000D6E0D2EFED70C2EFCD70B2EFAD7000059
:1059AC00000070D0000E0101F01902E1010EEF1998
:1059BC00D8B438EF27F0000EF01902E1020EEF19FF
:1059CC00D8B47CEF27F0000EF01902E1030EEF19AA
:1059DC00D8B4E0EF27F0000EF01902E1040EEF1935
:1059EC00D8B442EF28F0000EF01902E1050EEF19C1
:1059FC00D8B4A4EF28F0000EF01902E1060EEF194E
:105A0C00D8B406EF29F0000EF01902E1070EEF19D9
:105A1C00D8B457D4000EF01902E1080EEF19D8B41F
:105A2C00B1D4000EF01902E1090EEF19D8B40BD560
:105A3C00000EF01902E10A0EEF19D8B465D5000E6C
:105A4C00F01902E10B0EEF19D8B4BFD5000EF01906
:105A5C0002E10C0EEF19D8B419D6000EF01902E1C0
:105A6C000D0EEF19D8B473D6000EF01902E10E0E1C
:105A7C00EF19D8B4CDD6000EF01902E10F0EEF19C4
:105A8C00D8B427D70101EF4BF02B22EF27F0020EF1
:105A9C00DE6FDC6BE06BE16BD96BDA6BDD6BEA6BA9
